:020000040800F2
:10000000E00B0020ED2F000815050008170500087B
:100010001B0500081F05000823050008000000005C
:10002000000000000000000000000000270500089C
:1000300029050008000000002B0500089B2E000881
:1000400007300008073000080730000807300008B4
:1000500007300008073000080730000807300008A4
:100060000730000807300008073000080730000894
:100070000730000807300008073000080730000884
:100080000730000807300008073000080730000874
:10009000E91B00080730000807300008F51E0008BB
:1000A000073000081919000859190008073000081E
:1000B0004113000807300008073000080730000827
:1000C0000730000807300008073000080730000834
:1000D00007300008BF6E000807300008B71D000891
:1000E0000730000807300008073000080730000814
:1000F0000730000807300008073000080730000804
:1001000007300008073000085913000807300008BE
:1001100007300008132C000807300008F716000805
:1001200007300008073000080730000807300008D3
:100130000730000807300008073000086323000874
:1001400007300008B31F0008073000080730000818
:1001500007300008073000080730000807300008A3
:100160000730000807300008073000080730000893
:100170000730000807300008073000080730000883
:10018000073000080730000800F002F800F092F88D
:100190000AA090E8000C82448344AAF10107DA45E2
:1001A00001D100F087F8AFF2090EBAE80F0013F0A2
:1001B000010F18BFFB1A43F0010318477C890000A8
:1001C0009C890000103A24BF78C878C1FAD8520739
:1001D00024BF30C830C144BF04680C6070470000C1
:1001E0000023002400250026103A28BF78C1FBD840
:1001F000520728BF30C148BF0B6070476E2906F018
:10020000B587702907F00981662908F012846529ED
:1002100008F00F84672908F00C84612908F00B842A
:1002200003681B0A28BF41F08001692906F0628734
:10023000642906F05F87752906F05C876F2907F04F
:100240009780782907F0D580E92907F03180E429E3
:1002500007F02E80F52907F02B80EF2907F0948016
:10026000F82907F0D4800368DB0928BF41F080013A
:10027000632907F0D585732907F0DA85E32907F0AC
:10028000E585F32907F0EA85002070471FB508F0DF
:10029000CBFB07F039FE04000020002108F020FB12
:1002A000401C60600020002108F004FBE0601FBDDE
:1002B00010B510BD07F0FAFD1146FFF7E7FF00F09B
:1002C000A6F807F0D3FE03B4FFF7F2FF03BC02F079
:1002D00049FD000038B502F0AFFD4FF4A06002F018
:1002E000A5FE00F009FEA82002F0FEFD00F024FEAD
:1002F00000F0DEFD01F092FC01F01BFC01F09CFE21
:1003000000F0C6FE00F01BFF01F0BEFC4FF4E13030
:1003100002F036FD4FF4E13001F0F6FC4FF4E1302D
:1003200002F0CEFB002005230A22022100900120CA
:1003300001F0EFFF01F001FE012067490860002095
:100340006649C1F8B4026449091D08604FF0804154
:10035000486206220021084601F097FD0446AA21C2
:1003600001F0F1FB052002F021FE052200210846E4
:1003700001F08BFD0446AA2101F0E5FB052002F007
:1003800015FE01220021084601F07FFD0446AA2146
:1003900001F0D9FB4FF4967002F008FE0422002110
:1003A000084601F072FD0446AA2101F0CCFB0520AD
:1003B00002F0FCFD08214A48007801F055FD044692
:1003C000AA2101F0C0FB052002F0F0FD45A001F0DC
:1003D00077FC002000F0B2F900F0CBFA012043498D
:1003E000C1F8A4024FF4FA7002F0E0FD0020404989
:1003F0000860322002F0DAFD01203C49C1F8A40275
:10040000642002F0D3FD00203949086038BDFFF7B1
:1004100061FF60E0364890380068002834D13548E4
:10042000007888BB322002F0C1FD31489038006866
:1004300050BB3048007838BB00202F4908602F4956
:10044000C1F8A40201202A4908604FF47A7002F032
:10045000ADFD00202549C1F8A402294801782948AA
:1004600003F0B8FC00F095F94FF4FA7002F09EFD2D
:10047000022000F063F9642002F098FD022000F0F1
:10048000A7F901201B4908701F480078012822D1D4
:1004900020E0022000F008FA642002F087FD1B48EB
:1004A0000078401C19490870022000F047F96420C8
:1004B00002F07CFD022000F08BF94FF4C87002F0CE
:1004C00075FD13480068062804D1022000F0ECF9FD
:1004D00000BFFEE7DDE79DE7B88241420080414270
:1004E0007A00002053544152540D0A0000804042CB
:1004F000A482404224000020A00241420000414268
:10050000EE0000200050004030000020F9000020E4
:1005100094000020704700BFFEE700BFFEE700BF69
:10052000FEE700BFFEE77047704770470CB500203C
:10053000019000907648006840F48030744908606B
:1005400000BF7348006800F4003000900198401C20
:100550000190009818B90198B0F5A04FF1D16C48FE
:10056000006800F4003010B10120009001E000208C
:1005700000900098012846D165484030006840F05E
:1005800080506349403108606248006840F4404050
:10059000604908605E48083000685D4908310860BD
:1005A0000846006840F4004008600846006840F4CF
:1005B000A05008605848091F0860081F006840F0F4
:1005C0008070091F086000BF5148006800F000708B
:1005D0000028F9D040F20570504908604C480830B6
:1005E000006820F003004A490831086008460068A6
:1005F00040F00200086000BF45480830006800F085
:100600000C000828F8D10CBD10B54548006840F42E
:100610007000434908603E48006840F001003C49D2
:10062000086000203A4908310860394800683D49AF
:100630000840374908603C48091D0860081F0068E9
:1006400020F48020091F0860002031490C31086027
:10065000FFF76CFF4FF0006031498039086010BD32
:1006600070B500200022022300240221284D083505
:100670002D6805F00C0020B1042806D0082834D1DC
:1006800007E02A4D2A4E356033E02A4D284E35606A
:100690002FE01F4D2D1D2D68C5F380541C4D2D1DC1
:1006A0002D6805F03F0154B1224DB5FBF1F5184E10
:1006B000361D3668C6F3881605FB06F209E01B4DA9
:1006C000B5FBF1F5124E361D3668C6F3881605FBEC
:1006D00006F20F4D2D1D2D68C5F301456D1C6B00F5
:1006E000B2FBF3F5124E356003E0104D104E35604D
:1006F00000BF00BF064D08352D68C5F303150E4E2B
:10070000705D0B4D2D68C540094E356070BD000011
:10071000003802400070004008544007003C02408E
:1007200088ED00E0FFFFF6FE103000240024F40006
:100730000000002000127A000400002070B504467A
:10074000022C06D10020FE4908604FF42F7002F001
:100750002DFC052002F02AFCFA49086801F074FB20
:100760000546AA2101F0EFF9052002F01FFCF64929
:1007700009782144F54A12F82100082101F074FBA0
:100780000546AA2101F0DFF94FF4967002F00EFC45
:1007900070BD08B5EE480068052810DAED48EC4950
:1007A000096850F82100EC49096808444FF41673B1
:1007B00041F2883202210090012001F06CFF0A20F2
:1007C00002F0F4FBE2480068401CE149086008BD03
:1007D00070B50446022C2DDA0120D949091D0860A4
:1007E000322002F0E3FBDD480178DD4803F0F2FA45
:1007F000D449086801F028FB0546AA2101F0A3F9B5
:10080000142002F0D3FBD04909782144CF4A02EBEF
:1008100081014878082101F027FB0546AA2101F053
:1008200092F94FF4C87002F0C1FB0120CD49C1F824
:10083000B40238E0022C36D10120C149091D0860FC
:10084000642002F0B3FBBF49086801F0FDFA0546D9
:10085000AA2101F078F9052002F0A8FBBA4909782D
:100860002144BA4A02EB81014878082101F0FCFAE0
:100870000546AA2101F067F94FF4FA7002F096FBE1
:100880000120B849C1F8B802C82002F08FFB01204E
:10089000AB49091F0860642002F088FBFFF779FF6D
:1008A000642002F083FB70BD70B50446052002F0A1
:1008B0007DFB0020A249091F0860052002F076FB9D
:1008C000A049086801F0C0FA0546AA2101F03BF9E9
:1008D000052002F06BFB9C49097821449B4A02EBFE
:1008E0008101C878082101F0BFFA0546AA2101F06C
:1008F0002AF94FF4C87002F059FB04EB44019A4AFC
:1009000002EB4101888802F051FB8F4909782144AC
:100910008E4A02EB81018878082101F0A5FA05468C
:10092000AA2101F010F988490978214401EB41011D
:100930008D4A32F8110001F0D3FA83490978214435
:1009400001EB4101884A02EB41014988484387494C
:10095000086000BF7B480068854908600846006859
:10096000824909688842F5DD00207549091D086043
:1009700070BD38B57F4C0EE04FF47A7341F2883287
:1009800002210120009401F086FE7A4804444FF4CD
:10099000FA7002F00BFB784800680028ECD038BDF4
:1009A00008B500204FF47A7341F28832022100909A
:1009B000012001F070FE4FF4FA7002F0F7FA08BD62
:1009C00010B56E480078502842D101206C4908606B
:1009D0004FF4FA7002F0EAFA00206A49C1F8A40262
:1009E0006648807A312806D10020FFF75DFF01209C
:1009F000FFF7A4FE19E06148807A322803D1012074
:100A0000FFF752FF11E05D48807A33280DD10120B5
:100A10005D4908700220FFF791FE0220FFF7D8FE23
:100A20005948017859A001F04BF95448807A72284E
:100A30000AD15248007B302803D10020FFF7C8FEBE
:100A400002E00120FFF7C4FE55A001F039F9EAE108
:100A50004A480078412815D10120494908604FF4DF
:100A6000FA7002F0A3FA00204649C1F8A4023D48FA
:100A7000D0F8B802C0433B49C1F8B8024EA001F01B
:100A80001FF9D0E13D480078672815D101203C4985
:100A900008604FF4FA7002F089FA00203949C1F871
:100AA000A4023048D0F8B402C0432E49C1F8B402C1
:100AB00046A001F005F9B6E130480078632815D169
:100AC00001202F4908604FF4FA7002F06FFA0020FD
:100AD0002C49C1F8A4022348D0F8BC02C0432149E4
:100AE000C1F8BC023EA001F0EBF89CE1234800787D
:100AF0004F2810D10120224908604FF4FA7002F00B
:100B000055FA00201F49C1F8A402FFF732FF37A0B1
:100B100001F0D6F887E1194800784E287FD10120EE
:100B2000174908604FF4FA7002F040FA00201549A6
:100B3000C1F8A402FFF72DFE32A001F0C1F872E166
:100B4000B8824142240C0040F90000205E000020E1
:100B5000940000207C000020C8000020F10000204C
:100B60000050004000804142340000201800002066
:100B70009C000020A0860100B80000203C0200205C
:100B8000A4824042008040423000002041727269DD
:100B90007665545A335F466C61673D25640D0A00E3
:100BA00053696D756C6174696F6E5F43616E5F440C
:100BB0006F6E650D0A0000004169725F63796C69B0
:100BC0006E6465725F446F6E650D0A0067756469D7
:100BD0006E675F62616C6C5F446F6E650D0A00004A
:100BE000636C61705F446F6E650D0A004F726967D8
:100BF000696E616C506F736974696F6E5F446F6E7C
:100C0000650D0A004E65787442616C6C506F7369B3
:100C100074696F6E5F446F6E650D0A00FFE784486C
:100C20000078452839D10120824908604FF4FA70D4
:100C300002F0BCF900208049C1F8A40200227F48DC
:100C40000188104601F021F90446AA2100F07BFF3B
:100C5000052002F0ABF9032278480188002001F05A
:100C600014F90446AA2100F06EFF052002F09EF957
:100C7000022272480188002001F007F90446AA21E7
:100C800000F061FF01F023F900206D4908706D4903
:100C900008706DA001F014F8C5E06548007873286D
:100CA00010D10120634908604FF4FA7002F07EF918
:100CB00000206149C1F8A4026949086069A000F0F8
:100CC000FFFFB0E05A48007843280ED1012059496F
:100CD00008604FF4FA7002F069F900205649C1F833
:100CE000A4020220FFF72AFD9DE0514800787028F9
:100CF0000ED101204F4908604FF4FA7002F056F906
:100D000000204D49C1F8A4020220FFF761FD8AE0EE
:100D10004748007853280ED10120464908604FF417
:100D2000FA7002F043F900204349C1F8A4020220FE
:100D3000FFF7BAFD77E03E4800786F281AD101200E
:100D40003C4908604FF4FA7002F030F900203A494B
:100D5000C1F8A4020220FFF7F1FCC82002F026F936
:100D60000220FFF7A1FDC82002F020F90220FFF7C2
:100D70009BFD58E02E480078472840D101202D499E
:100D800008604FF4FA7002F011F900202A49C1F806
:100D9000A402274880786C280AD12548407A303848
:100DA000334908700846017832A000F089FF3AE024
:100DB0001F488078742836D101201E4908604FF4FE
:100DC000FA7002F0F3F800201B49C1F8A4022D4884
:100DD00001782D4802F0FEFFFFF7DBFC4FF4FA70BC
:100DE00002F0E4F80220FFF7A9FC0220FFF7F0FC74
:100DF00001202649087026A000F062FF13E00C488D
:100E000000785F280FD101200A4908604FF4FA707A
:100E100002F0CCF800200849C1F8A402FFF7C0FD99
:100E20001EA000F04DFF00202049088010BD0000EA
:100E30003C020020A4824042008040423200002058
:100E40002600002027000020456D657267656E63EF
:100E5000795F73746F705F446F6E650D0A000000F8
:100E600094000020736574305F446F6E650D0A0056
:100E7000F9000020676F6C645F6E756D3D25640D31
:100E80000A000000EE000020005000402400002076
:100E9000476F746F545A330D0A0000005F524D3390
:100EA000355F4261636B0D0A00000000BC0000204A
:100EB0001CB50121042002F0D5FC0F200090012078
:100EC0008DF8040000208DF8060003208DF8050041
:100ED00001208DF807006946064802F09DF94FF49D
:100EE0008061044802F014FA0F21024802F010FA5F
:100EF0001CBD0000000802401CB50121022002F0C8
:100F0000B1FC4FF40070009001208DF80400002027
:100F10008DF8060003208DF8050002208DF80700EB
:100F20006946044802F078F94FF40071014802F074
:100F3000F1F91CBD000402401CB50121042002F09F
:100F400091FC4FF46040009000208DF804000320D5
:100F50008DF8050001208DF807006946474802F02A
:100F60005BF91CBD10B5044614B10120444908705A
:100F70004348007878B34FF40051404802F0AEF98E
:100F800058B14FF480413D4802F0A8F928B14FF420
:100F900000413A4802F0A2F9E8B90A2002F006F846
:100FA0000020374908704FF40051344802F096F998
:100FB00008B9012010BD4FF48041304802F08EF98D
:100FC00008B90220F6E74FF400412C4802F086F9F8
:100FD000B8B90320EEE7FFE74FF40051274802F0CD
:100FE0007DF901280DD18103244802F077F9012809
:100FF00007D1C103214802F071F9012801D120492C
:1010000008700020D6E710B54FF400511B4802F0DD
:1010100065F958B14FF48041184802F05FF928B1E2
:101020004FF40041154802F059F9E8B90A2001F0DF
:10103000BDFF4FF40051114802F050F910B90120E2
:10104000104908704FF480410C4802F047F910B97C
:1010500001200D4908704FF40041084802F03EF9A4
:1010600010B901200949087010BD00200549087019
:1010700005490870054908707047000000080240E3
:101080009B00002098000020990000209A0000207A
:1010900000B589B00121082002F02DFC012108468D
:1010A00002F0E0FB02220021B14802F040F90222E6
:1010B0000121AF4802F03BF90320079002208DF890
:1010C000200003208DF8210001208DF8220007A9BF
:1010D000A74802F0A1F804A804F0AFF80020ADF88A
:1010E0001000401E05900020ADF81800ADF8120069
:1010F00004A9A04804F06DF800231A4603219D4876
:1011000004F0DBFD01A804F072FC0A20ADF80C002D
:1011100001A9984804F034FC0121964804F00EFD22
:1011200001221146934804F0F5FC0021914804F097
:1011300099F801218F4804F0D5F809B000BD00B539
:1011400089B00121084602F0D6FB0121084602F0D1
:1011500089FB0121022002F085FB01220521844840
:1011600002F0E5F801220321834802F0E0F8202094
:10117000079002208DF8200003208DF82100002028
:101180008DF8230007A97A4802F046F80820079056
:1011900002208DF8200003208DF8210000208DF81A
:1011A000230007A9744802F037F81C208DF80000CE
:1011B00001208DF8010002208DF8020001208DF839
:1011C0000300684601F037FF04A804F036F8002059
:1011D000ADF81000401E05900020ADF81800ADF8E5
:1011E000120004A94FF0804003F0F3FF00231A46D9
:1011F00003214FF0804004F060FD01A804F0F7FBEC
:101200000A20ADF80C0001A9400704F0B9FB012148
:10121000880704F093FC01221146900704F07AFC41
:1012200000214FF0804004F01DF80121880704F0F0
:1012300059F809B000BD00B589B00121084602F097
:101240006BFB0121102002F00DFB012209214B480C
:1012500002F06DF801220B21484802F068F84FF4C3
:101260002060079002208DF8200003208DF82100D7
:1012700001208DF8220000208DF8230007A93F48A7
:1012800001F0CAFF19208DF8000001208DF801003F
:1012900002208DF8020001208DF80300684601F05D
:1012A000CAFE374803F0E8FE04A803F0C6FF00209A
:1012B000ADF810004FF47A7005900020ADF81800DA
:1012C000ADF8120004A92E4803F083FF00231A464C
:1012D00003212B4804F0F1FC01A804F088FB0A204C
:1012E000ADF80C0001A9264804F04AFB012124486E
:1012F00004F024FC01221146214804F00BFC0021DB
:101300001F4803F0AFFF01211D4803F0EBFF09B0B8
:1013100000BD014601290CD0022902D005290BD1BC
:1013200003E04FF08042506A08E0124A243210680D
:1013300004E0134A506A01E0002000BF00BF70477C
:101340004FF08040008A4FF08040008A20F001007A
:101350004FF08041088270470648103000880548E9
:101360001030008820F001000249103108807047D9
:1013700000000240000C0040000402400010024047
:101380000000014001460868704701464C48814210
:1013900001D2002070474B48814201D20820F9E772
:1013A0004948814201D21020F4E74848814201D2E5
:1013B0001820EFE74648814201D22020EAE745485D
:1013C000814201D22820E5E74348814201D2302002
:1013D000E0E74248814201D23820DBE740488142C1
:1013E00001D24020D6E73F48814201D24820D1E7D0
:1013F0003D48814201D25020CCE75820CAE72DE970
:10140000F04704460E4617464FF009080025A94646
:10141000B4F1006F02D304F0030008B1BDE8F08717
:1014200003F01EFB002003F0FEFA254604EB8709BB
:101430002E48854215D211E02846FFF7A3FF401C35
:1014400058B12846FFF7A1FF8246022103F05CFB5A
:101450008046B8F1090F01D002E02D1D4D45EBD3B8
:1014600000BFB8F1090F0CD108E02046316803F045
:1014700064FC092800D003E0241D361D4C45F4D33C
:1014800000BF012003F0CFFA03F0F7FA00BFC5E771
:1014900030B503460C461546002206E01846FFF715
:1014A00071FF44F822001B1D521CAA42F6D330BD26
:1014B00013B50446012201A92046FFF7A0FF1CBD79
:1014C000004000080080000800C00008000001087B
:1014D00000000208000004080000060800000808D8
:1014E00000000A0800000C0800000E080000FF1FA2
:1014F0008C4800210160818070478A48808840F2D2
:10150000E731884205DA87488088401C8549888011
:1015100026E00020834988800846C0783B2804DA0A
:101520000846C078401CC8701AE000207D49C87089
:10153000084680783B2804DA08468078401C88708A
:101540000EE000207749887008460088172804DAE2
:1015500008460088401C088002E00020714908808D
:10156000704710B5044604EB44006F4901EB80005E
:1015700090ED000A04EB440001EB800080ED010ACD
:1015800001F094FC00EE100AB8EE400ADFED670AA5
:1015900080EE201A04EB4400634901EB800080EDEB
:1015A000001A04EB440001EB800090ED000A04EB0C
:1015B000440001EB8000D0ED010A30EE600A04EB3C
:1015C000440001EB800080ED020A04EB440001EBD3
:1015D000800090ED020A10BD10B5002404E0204602
:1015E000FFF7BFFF601CC4B2052CF8DB10BD7FB550
:1015F00005460C460121042002F07DF90295ADF864
:1016000004400020ADF80600ADF80C0001A94848E0
:1016100003F0DFFD01221146454804F07BFA012169
:10162000434803F05FFE1E208DF8000001208DF876
:10163000010003208DF8020001208DF803006846A8
:1016400001F0F9FC7FBD7FB505460C460121102055
:1016500002F051F90295ADF804400020ADF8060003
:10166000ADF80C0001A9334803F0B3FD0122114687
:10167000304804F04FFA01212E4803F033FE3620A3
:101680008DF8000001208DF8010003208DF8020084
:1016900001208DF80300684601F0CDFC7FBD7FB5C9
:1016A00005460C460121202002F025F90295ADF8EF
:1016B00004400020ADF80600ADF80C0001A91E485A
:1016C00003F087FD012211461B4804F023FA012193
:1016D000194803F007FE37208DF8000001208DF82F
:1016E000010003208DF8020001208DF803006846F8
:1016F00001F0A1FC7FBD10B501210F4804F021FAD3
:1017000070B10E49086800F09FFB0446AA2100F062
:101710001AFA052001F04AFC0121074804F022FAD8
:1017200010BD0000A80000202401002000247449FE
:10173000000800400010004000140040240C00404D
:1017400030B58BB004460D460121880402F0E4F860
:101750000121022002F086F803220921AE4801F09F
:10176000E6FD4FF40070099002208DF82800032058
:101770008DF8290000208DF82A0001208DF82B001B
:1017800009A9A54801F048FDA8B2ADF8180000204D
:10179000ADF81A000794ADF8200006A99F4803F0A1
:1017A00018FD6020ADF800000120ADF80200002017
:1017B000ADF80C006946994803F0A0FD0821974850
:1017C00003F029FF0121954803F06EFD01219348A4
:1017D00003F088FD01220221904804F09BF90221C8
:1017E0008E4804F0BFF91A208DF8140000208DF8FF
:1017F000150001208DF816008DF8170005A801F0DE
:101800001AFC0BB030BD30B58BB004460D4601213B
:10181000480402F081F80121022002F023F803229B
:1018200008217D4801F083FD4FF48070099002206B
:101830008DF8280003208DF8290000208DF82A005B
:1018400001208DF82B0009A9734801F0E5FCA8B22E
:10185000ADF818000020ADF81A000794ADF820008C
:1018600006A96F4803F0B5FC6020ADF80000012028
:10187000ADF802000020ADF80C006946684803F09E
:101880003DFD0821664803F0C6FE0121644803F0CF
:101890000BFD0121624803F025FD01220221604871
:1018A00004F038F902215E4804F05CF919208DF843
:1018B000140000208DF8150001208DF816008DF819
:1018C000170005A801F0B7FB0BB030BD1CB55321C4
:1018D00040F2CF70FFF797FF532140F2CF70FFF730
:1018E0002FFF0121102001F0BDFF302000900120CA
:1018F0008DF8040000208DF8060003208DF8050007
:1019000001208DF807006946464801F085FC012159
:10191000102001F0A7FF1CBD10B50221404804F0C3
:1019200010F9012817D102213D4804F01BF93E4867
:101930000088401C3C490880084600883B490988CB
:10194000884208DB0021364803F031FE002036498A
:1019500008803649088010BD10B502212F4804F0D8
:10196000F0F8012817D102212C4804F0FBF8304888
:101970000088401C2E490880084600882D490988A7
:10198000884208DB0021254803F011FE0020284989
:1019900008802849088010BD10B50446002023495E
:1019A000088000211E4803F002FE00201E49088026
:1019B000002C05DA2049086060421C49088004E0D8
:1019C00001201D49086019490C804FF47A711448B0
:1019D00003F0EDFD10BD10B5044600210F4803F0E3
:1019E000E6FD00201249088012490880002C06DA22
:1019F0001149091D086060420E49088005E0012078
:101A00000D49091D08600B490C804FF47A71034899
:101A100003F0CDFD10BD000000040240004801406D
:101A20000044014000100240AE000020B20000203F
:101A3000B0000020B4000020940242421FB50020F4
:101A40008DF80A008DF80B0001208DF80C004FF482
:101A5000A150ADF800000020ADF80200ADF8040080
:101A6000ADF80600ADF8080001208DF80D006846BD
:101A700002F063FB1FBD0EB500208DF806008DF847
:101A800007008DF8080001208DF8090000208DF86E
:101A90000A008DF80B008DF802008DF80300082075
:101AA0008DF8040003208DF80500ADF800006946AC
:101AB000574802F0B8FA0EBD08B501220221544879
:101AC00002F03AFE14208DF8000001208DF801008C
:101AD00000208DF8020001208DF80300684601F017
:101AE000AAFA08BD1CB50121084601F0BBFE012180
:101AF000480601F000FF4FF4C050009002208DF81E
:101B0000040000208DF8060003208DF80500012058
:101B10008DF8070069463F4801F07EFB09220B2142
:101B20003C4801F004FC09220C213A4801F0FFFB7B
:101B30001CBD10B5FFF7D6FFFFF7BEFFFFF79BFFF9
:101B4000FFF77CFF10BD2DE9F04106460F4600244B
:101B500031480760002030490872487208208872B6
:101B600000BF05E0315D2C480B300155601C84B28C
:101B7000082CF7DB2849264802F0CEFB0546002456
:101B800001E0601C84B22946214802F05DFC18B9CE
:101B900040F6FF708442F4DB40F6FF70844202DBC3
:101BA0000120BDE8F0810020FBE730B585B0054697
:101BB0000021174802F028FD10B9002005B030BD03
:101BC0006A460021124802F09CFC002405E00DF159
:101BD0000B00005D2855601C84B29DF80A00A042ED
:101BE000F5DC9DF80A00E9E700B585B00221084858
:101BF00002F00AFE48B10221054802F0A0FE6A4642
:101C00000021034802F07DFC00BF05B000BD0000CC
:101C10000064004000000240600100201CB501216A
:101C20000C2001F01FFE4FF46040009001208DF861
:101C3000040000208DF8060003208DF80500012027
:101C40008DF8070069461B4801F0E6FA4FF4407032
:101C5000009001208DF8040000208DF8060003207C
:101C60008DF8050001208DF807006946124801F043
:101C7000D3FA4FF460410F4801F04AFB4FF4407132
:101C80000D4801F045FB1CBD1CB50121022001F0EF
:101C9000E9FD6020009000208DF8040003208DF8FD
:101CA000050001208DF807006946044801F0B4FAE8
:101CB0001CBD0000000C024000080240000402406D
:101CC0000FB438B505A800905A48009A049905F059
:101CD00025F900200090574805F03EF985B2002410
:101CE0000DE000BF4021544802F024F90028F9D04B
:101CF0005048015D504802F06DF8601C84B2AC425F
:101D0000EFDB38BC5DF814FB10B588B00446012148
:101D1000022001F0A7FD0121880401F0ECFD07225B
:101D20000A21464801F003FB07220B21434801F03A
:101D3000FEFA4FF44060069002208DF81C008DF8EA
:101D40001D0000208DF81E0001208DF81F0006A93F
:101D50003A4801F061FA02940020ADF80C00ADF8A9
:101D60000E00ADF81000ADF814000C20ADF8120014
:101D700002A9314801F07BFF01212F4801F0FFFF4C
:101D800040212D4802F0E3F8012240F225512A4873
:101D900002F0ABF827208DF8040000208DF8050034
:101DA00002208DF8060001208DF8070001A801F03F
:101DB00042F908B010BD10B540F225511E4802F09E
:101DC000CFF820B31C4802F009F8C4B21C480088C0
:101DD00000F40040D8B91A48008800F4804070B17F
:101DE0000A2C03D000201649088022E014480088FD
:101DF00040F4004012490880FEF7E2FD19E00D2C86
:101E000006D10F48008840F480400D49088010E05A
:101E10000B480088C0F30D000A490C54084800889C
:101E2000401C0749088008460088C72801DD0020BB
:101E3000088010BD740100200048004000040240EA
:101E4000BC0000203C02002001460020284A1070FF
:101E5000507090700920D070080A107151710020E4
:101E60009071D0711046704702460020204B1870C8
:101E7000587098701846C170002018715871184633
:101E800082710020D8711846704710B50346184873
:101E90000370080A164C6070A1702046C2700020C2
:101EA00020716071A071E071204610BD30B504460C
:101EB0000F480470080A0E4D6870A9702846C27059
:101EC000002028716B71A871E871284630BD002090
:101ED00003E00021064A1154401C0828F9DB704732
:101EE000014609B1012070474FF0FF30FBE70000C9
:101EF000BE00002008B524480068D0B90A2001F0CF
:101F000055F821480068A0B92048006888B92048E1
:101F100040684FF47A7341F2883202210090012028
:101F200000F0B9FB012019490860194840681949B7
:101F30000860402001F0B3FA08BD0EB50121880306
:101F400001F0EAFC0621012001F0F1FD40200090A3
:101F500000208DF804000C208DF8050001208DF87C
:101F60000600684601F02AFA17208DF808000120C3
:101F70008DF8090002208DF80A0001208DF80B0071
:101F800002A801F058F80EBD18824042B8000020A7
:101F900004030020C800002010B5002106E028221C
:101FA00000BF1300A2F10102FBD1491C8142F6D30C
:101FB00010BD00B585B01021FC4802F025FCC8B367
:101FC0001021FA4802F0BBFC6A460121F74802F0F2
:101FD00098FA9DF8080068BB9DF8080050BB9DF872
:101FE0000A00082826D140F22B110098884221D1FE
:101FF0009DF80C009DF80B1040EA012000B2EC495E
:1020000048809DF80E109DF80D0041EA002000B2B6
:10201000E84948809DF80F0001069DF8100041EA4C
:1020200000419DF8110041EA00209DF8121008437C
:10203000E149486005B000BD00B58BB00121022028
:1020400001F010FC0121480601F055FC0121880631
:1020500001F051FC09220C21D84801F068F909224D
:102060000D21D64801F063F94FF440500290022050
:102070008DF80C0002A9D14801F0CEF841208DF86E
:10208000040002208DF8050001208DF806008DF86F
:10209000070001A800F0CFFF3F208DF804000120C9
:1020A0008DF805008DF806008DF8070001A800F0F6
:1020B000C2FFBE4801F09EFF08A802F0BFF8002052
:1020C0008DF826008DF827008DF828008DF829005E
:1020D0008DF82A0001208DF82B0000208DF82200B9
:1020E0008DF8230008208DF8240003208DF82500AA
:1020F000ADF8200008A9AD4801F095FF0E208DF83D
:102100001A0000208DF81B0001208DF81C00ADF88E
:102110001000ADF812000020ADF81400ADF8160064
:102120000120ADF818008DF81D0004A802F005F894
:10213000012210219D4802F0FFFA012211469B481E
:1021400002F0FAFA0BB000BDF0B585B004460D46BA
:102150001746012600208DF808008DF80900082098
:102160008DF80A00072C06DC0F2D04DC46EA042655
:1021700046EA051601E005B0F0BD00968DF80B703B
:1021800055218DF80C108DF80D108DF80E108DF86E
:102190000F108DF810108DF811108DF8121000200E
:1021A000874908706946814802F0B6F800208549E1
:1021B00008600CE00120FFF7EFFE82480068401C39
:1021C0008049086008460068642800D903E07C481C
:1021D00000780028EED000BF00BFCCE72DE9F04129
:1021E00086B005460E4690461C460A2700208DF80C
:1021F0000C008DF80D0008208DF80E00072D06DC70
:102200000F2E04DC47EA052747EA061702E006B06E
:10221000BDE8F08114B1012C00D0002401978DF8A5
:102220000F808DF8104055218DF811108DF8121087
:102230008DF813108DF814108DF815108DF81610F8
:1022400000205F49087001A9584802F065F8002095
:102250005C4908600CE00120FFF79EFE59480068C9
:10226000401C5849086008460068642800D903E00B
:10227000534800780028EED000BF00BFC7E770B514
:1022800086B004460D46002600208DF80C008DF81F
:102290000D0008208DF80E00072C06DC0F2D04DC45
:1022A00046EA042646EA051601E006B070BD01962E
:1022B00055208DF80F0055218DF810108DF8111054
:1022C0008DF812108DF813108DF814108DF815106C
:1022D0008DF8161000203A49087001A9334802F021
:1022E0001BF80020374908600CE00120FFF754FE7E
:1022F00034480068401C3349086008460068642878
:1023000000D903E02E4800780028EED000BF00BFBF
:10231000CBE72DE9F04105460E4617461C46DDF891
:102320001880642000F042FE31462846FFF7A7FFE0
:102330004FF4FA7000F03AFE43463A4631462846DA
:10234000FFF74CFF4FF4FA7000F0E8FD22463146EB
:102350002846FFF7F9FE4FF4FA7000F027FEBDE8BB
:10236000F08110B50121114802F04EFA30B101217F
:102370000E4802F0E4FA01201149087010BDF0B5D2
:1023800085B005460E461446022700208DF8080049
:102390008DF8090008208DF80A00072D14DC0F2E97
:1023A00012DC47EA052747EA06170FE000680040FD
:1023B000D2000020DA0000200403002000040240C4
:1023C000D0000020CC00002005B0F0BD009741F205
:1023D0008830844201DD044603E0F948844200DA93
:1023E0000446200A8DF80B00E1B28DF80C1055213F
:1023F0008DF80D108DF80E108DF80F108DF810104F
:102400008DF811108DF812100020EE490870694601
:10241000ED4801F081FF0020EC4908600CE001204C
:10242000FFF7BAFDE9480068401CE8490860084623
:102430000068642800D903E0E24800780028EED064
:1024400000BF00BFC0E72DE9F04186B005460E464B
:1024500014461F464FF0030800208DF80C008DF83D
:102460000D0008208DF80E00072D06DC0F2E04DC71
:1024700048EA052848EA061802E006B0BDE8F081FF
:10248000CDF8048041F28830844201DD044603E047
:10249000CB48844200DA0446002C04DA01DD2046F1
:1024A00000E0604204B2200A8DF80F008DF8104061
:1024B000390A8DF811108DF8127055218DF813100E
:1024C0008DF814108DF815108DF816100020BD49E8
:1024D000087001A9BC4801F01FFF0020BB4908603B
:1024E0000CE00120FFF758FDB8480068401CB749D0
:1024F000086008460068642800D903E0B148007805
:102500000028EED000BF00BFB7E72DE9F04186B04C
:1025100005460E4614461F464FF0040800208DF86D
:102520000C008DF80D0008208DF80E00072D06DC3C
:102530000F2E04DC48EA052848EA061802E006B037
:10254000BDE8F081CDF8048041F28830844201DD9D
:10255000044603E09A48844200DA0446002C04DA78
:1025600001DD204600E0604204B2200A8DF80F0031
:102570008DF81040390A8DF811108DF81270552120
:102580008DF813108DF814108DF815108DF81610A5
:1025900000208C49087001A98B4801F0BDFE002085
:1025A0008A4908600CE00120FFF7F6FC87480068C4
:1025B000401C8649086008460068642800D903E08A
:1025C000804800780028EED000BF00BFB7E72DE9B3
:1025D000F04186B006460F4614461D464FF00508EA
:1025E00000208DF80C008DF80D0008208DF80E00ED
:1025F000072E06DC0F2F04DC48EA062848EA0718F5
:1026000002E006B0BDE8F081CDF8048041F28830E8
:10261000844201DD044603E06948844200DA04464E
:10262000002C04DA01DD204600E0604204B2200AFA
:102630008DF80F008DF8104055218DF811108DF890
:102640001210290E8DF81310290C8DF81410290A78
:102650008DF815108DF8165000205A49087001A900
:10266000594801F059FE0020584908600CE001204B
:10267000FFF792FC55480068401C54490860084622
:102680000068642800D903E04E4800780028EED0A6
:1026900000BF00BFB5E72DE9F04385B080460F4687
:1026A00014461D460C9E4FF0060900208DF80800C8
:1026B0008DF8090008208DF80A00B8F1070F06DC34
:1026C0000F2F04DC49EA082949EA071902E005B09E
:1026D000BDE8F083CDF8009041F28830844201DDFE
:1026E000044603E03648844200DA0446002C04DA4B
:1026F00001DD204600E0604204B2002D04DA01DD75
:10270000284600E0684205B2200A8DF80B00E1B2CD
:102710008DF80C10290A8DF80D10E9B28DF80E1005
:10272000310E8DF80F10310C8DF81010310A8DF824
:102730001110F1B28DF8121000202249087069467C
:10274000214801F0E9FD0020204908600CE001204B
:10275000FFF722FC1D480068401C1C490860084621
:102760000068642800D903E0164800780028EED0FD
:1027700000BF00BFABE72DE9F04186B005460E462D
:1027800014461F464FF0070800208DF80C008DF806
:102790000D0008208DF80E00072D06DC0F2E04DC3E
:1027A00048EA052848EA061802E006B0BDE8F081CC
:1027B000CDF80480002C0DDA0ADD204609E0000087
:1027C00078ECFFFFD000002000680040CC00002023
:1027D000604204B2200A8DF80F008DF81040390ACB
:1027E0008DF811108DF8127055218DF813108DF899
:1027F00014108DF815108DF816100020AD490870D2
:1028000001A9AD4801F088FD0020AC4908600CE04A
:102810000120FFF7C1FBA9480068401CA7490860D8
:1028200008460068642800D903E0A2480078002820
:10283000EED000BF00BFB8E72DE9F04186B00646F4
:102840000F4614461D464FF0080800208DF80C0076
:102850008DF80D0008208DF80E00072E06DC0F2FD6
:1028600004DC48EA062848EA071802E006B0BDE89A
:10287000F081CDF80480002C04DA01DD204600E070
:10288000604204B2200A8DF80F008DF810405521E7
:102890008DF811108DF81210290E8DF81310290CD7
:1028A0008DF81410290A8DF815108DF81650002097
:1028B0008049087001A9804801F02EFD00207F4961
:1028C00008600CE00120FFF767FB7C480068401CB3
:1028D0007A49086008460068642800D903E0754812
:1028E00000780028EED000BF00BFBFE72DE9F0431D
:1028F00085B00746884614461D460C9E4FF00909D0
:1029000000208DF808008DF8090008208DF80A00D5
:10291000072F07DCB8F10F0F04DC49EA072949EA61
:10292000081902E005B0BDE8F083CDF80090002C56
:1029300004DA01DD204600E0604204B2002D04DA32
:1029400001DD284600E0684205B2200A8DF80B0040
:10295000E1B28DF80C10290A8DF80D10E9B28DF84E
:102960000E10310E8DF80F10310C8DF81010310A49
:102970008DF81110F1B28DF8121000204D49087039
:1029800069464D4801F0C8FC00204C4908600CE045
:102990000120FFF701FB49480068401C47490860D7
:1029A00008460068642800D903E0424800780028FF
:1029B000EED000BF00BFB5E770B586B004460D4647
:1029C0000F2600208DF80C008DF80D0008208DF8E2
:1029D0000E00072C06DC0F2D04DC46EA042646EA2E
:1029E000051601E006B070BD019655208DF80F0068
:1029F00055218DF810108DF811108DF812108DF8EA
:102A000013108DF814108DF815108DF81610002085
:102A10002849087001A9284801F07EFC00202749B8
:102A200008600CE00120FFF7B7FA24480068401C5A
:102A30002249086008460068642800D903E01D4860
:102A400000780028EED000BF00BFCBE7F0B585B01E
:102A500006460F460024009700208DF808008DF8E8
:102A6000090008208DF80A0000BF05E0315D0DF176
:102A70000B000155601C84B2082CF7DB69460E4838
:102A800001F04AFC0546002401E0601C84B229469E
:102A9000094801F0D9FC18B940F6FF708442F4DB14
:102AA00040F6FF70844202DB012005B0F0BD00203B
:102AB000FBE70000D000002000680040CC000020B0
:102AC00010B588B00446934801F06AF8012104204B
:102AD00000F0C8FE0121082000F0C4FE0121080515
:102AE00000F009FF4FF48050059002208DF8180087
:102AF0008DF8190000208DF81A0001208DF81B00B8
:102B000005A9854800F088FB0420059002208DF877
:102B100018008DF8190000208DF81A0001208DF89A
:102B20001B0005A97D4800F077FB08220C217A489C
:102B300000F0FDFB08220221784800F0F8FB019428
:102B40000020ADF80800ADF80A00ADF80C00ADF8B3
:102B500010000C20ADF80E0001A96E4801F087F8B6
:102B6000012240F225516B4801F0BFF9012169486B
:102B700001F005F935208DF81C0001208DF81D00AD
:102B800002208DF81E0001208DF81F0007A800F01C
:102B900052FA00206249088008B010BD0FB438B561
:102BA00005A800905F48009A049904F0B7F9002046
:102BB00000905C4804F0D0F985B200240DE000BF1D
:102BC0004021544801F0B6F90028F9D05548015D7C
:102BD000504801F0FFF8601C84B2AC42EFDB38BC17
:102BE0005DF814FB00BF4B49098801F04001002942
:102BF000F9D048498880704770B504460D4603E017
:102C00002078FFF7EFFF641C2800A5F10105F7D13C
:102C100070BD70B540F225513E4801F0A1F9002881
:102C200077D03C4801F0DAF8C4B2032C12D13E4808
:102C3000007840B90020FDF7CBFD3B480078401CF0
:102C40003949087065E038480078012861D1FDF7FE
:102C5000BFFD5EE05CB90020FDF726FE3348017839
:102C60002C4801F0B7F80120FDF768FD51E0012C78
:102C700008D10120FDF718FE2D480178254801F004
:102C8000A9F846E0042C03D100202A49086040E05E
:102C9000022C03D10120284908703AE00F2C38D1CA
:102CA0000120264908604FF4FA7000F07FF90020F7
:102CB0002349C1F8A402002211461046FFF7E5F8A7
:102CC0000546AA21FEF73FFF052000F06FF9032219
:102CD00000210846FFF7D9F80546AA21FEF733FF81
:102CE000052000F063F9022200210846FFF7CDF825
:102CF0000546AA21FEF727FFFFF7E9F8FDF750FE8A
:102D00000120104908601049C1F8A4020FA0FEF785
:102D1000D7FF70BD0050004000080240000C024088
:102D2000F200002014030020F8000020EF00002033
:102D3000F0000020B882414230000020A4824042CE
:102D400000804042A002414200004142456D657250
:102D500067656E63795F73746F705F446F6E650D46
:102D60000A000000014600BF704700BF304A1288C9
:102D700002F04002002AF9D0C2B22D4B9A8070476F
:102D800010B588B004460121084600F06BFD012112
:102D9000102000F0C1FD07220921264800F0C7FAE3
:102DA00007220A21234800F0C2FA4FF4C0600690BF
:102DB00002208DF81C008DF81D0000208DF81E00EB
:102DC00001208DF81F0006A91A4800F025FA029488
:102DD0000020ADF80C00ADF80E00ADF81000ADF815
:102DE00014000C20ADF8120002A9114800F03FFFBA
:102DF00001210F4800F0C3FF40210D4801F0A7F862
:102E0000012240F225510A4801F06FF825208DF883
:102E1000040000208DF8050002208DF80600012036
:102E20008DF8070001A800F006F908B010BD0000F9
:102E300000100140000002407FB5684600F041FCF0
:102E40004FF47A710198B0FBF1F4E4082146481E72
:102E5000B0F1807F00D31BE0481E4FF0E0225061AC
:102E600050170F22002807DA13071E0E1B4B00F025
:102E70000F052D1F5E5503E013071D0E184B1D5443
:102E800000BF00204FF0E02290610720106100BFDA
:102E90006FF0040000F01CF97FBD10B51148006808
:102EA000401C10490860FEF728FB10BD0D4A116850
:102EB0004FF0E02252694FF0E0239B69D21A4FF4A1
:102EC0007A735A434FF0E0235B69B2FBF3F201EBF4
:102ED0004103C3EBC11302EBC300704718ED00E0E0
:102EE00000E400E00801002010B504466FF0040083
:102EF00000F0EEF8E11704EB5171C1F3C701394A54
:102F000011701046007800EB4001C1EBC0104FF685
:102F1000FF7101EAC0003449088010BD0146314A02
:102F200012784A434FF0E0235A6100229A611A4610
:102F3000126942F001021A6100BF4FF0E0221069ED
:102F400000F001021AB100F48032002AF5D04FF0EF
:102F5000E022126922F001024FF0E0231A61002200
:102F60009A6170470146204A12884A434FF0E02395
:102F70005A6100229A611A46126942F001021A61EE
:102F800000BF4FF0E022106900F001021AB100F416
:102F90008032002AF5D04FF0E022126922F00102BF
:102FA0004FF0E0231A6100229A61704770B5044621
:102FB0004FF4077094FBF0F0C6B24FF4077094FB27
:102FC000F0F100FB114085B205E04FF40770FFF708
:102FD000C9FF701EC6B2002EF7D115B12846FFF703
:102FE000C1FF70BD0C0100200E0100200948804780
:102FF00009480047FEE7FEE7FEE7FEE7FEE7FEE7DB
:10300000FEE7FEE7FEE7FEE704480549054A064BF2
:10301000704700000906000889010008E00500204B
:10302000E00B0020E0070020E007002032490143C8
:10303000324A1160704770B5002100230F22C47816
:103040001CB32E4C246804F4E064C4F5E064C4F3BB
:103050000721C1F10404E3B20A4144789C40E1B283
:103060008478144021430C07210E254C05786155C6
:10307000047804F01F050124AC4005786D11AD0003
:1030800005F1E025C5F8004109E0047804F01F05CA
:103090000124AC401B4D0678761145F8264070BDE2
:1030A000194A0A400243154B1B1F1A60704739B179
:1030B000124A121D12680243104B1B1D1A6006E0D3
:1030C0000E4A121D126882430C4B1B1D1A6070477A
:1030D000042808D14FF0E021096941F004014FF0C4
:1030E000E022116107E04FF0E021096921F00401BD
:1030F0004FF0E022116170470000FA050CED00E08E
:1031000000E400E080E100E080FFFF1F10B504460E
:103110009848844208D10121084600F00EFC0021A5
:10312000012000F00AFC76E09348844208D1012196
:10313000022000F002FC0021022000F0FEFB6AE009
:103140008E48844208D10121042000F0F6FB0021C2
:10315000042000F0F2FB5EE08948844208D101219E
:10316000082000F0EAFB0021082000F0E6FB52E016
:103170008448844208D10121102000F0DEFB0021A8
:10318000102000F0DAFB46E07F48844208D101219C
:10319000202000F0D2FB0021202000F0CEFB3AE0FE
:1031A0007A48844208D10121402000F0C6FB00216A
:1031B000402000F0C2FB2EE07548844208D1012176
:1031C000802000F0BAFB0021802000F0B6FB22E056
:1031D0007048844208D10121801500F0AEFB002127
:1031E000A01500F0AAFB16E06B48844208D101212B
:1031F000401500F0A2FB0021601500F09EFB0AE0E4
:103200006648844207D10121001500F096FB002199
:10321000201500F092FB10BDF0B50A4600210023F6
:10322000002400BF3DE0012505FA01F3156805EA19
:1032300003049C4234D105684F000326BE40B543C9
:10324000056015794E00B54006683543056015796F
:10325000012D02D01579022D16D185684F00032665
:10326000BE40B543856055794E00B540866835430C
:103270008560456801268E40B5434560456896796E
:103280008E40B6B235434560C5684F000326BE4048
:10329000B543C560D5794E00B540C6683543C560B5
:1032A000491C1029BFD3F0BD4FF6FF71016000210A
:1032B000017141718171C171704708B54FF480325D
:1032C0000092009A0A430092009AC261C161009A7A
:1032D000C261C2690092C269009208BD0246002024
:1032E00013690B400BB1012000E00020704701463C
:1032F000086980B270470246002053690B400BB149
:10330000012000E0002070470146486980B2704704
:1033100001837047418370470AB1018300E0418314
:1033200070474161704742694A4042617047F0B559
:10333000002300244D07ED0E02FA05F3CE1000F134
:10334000200555F826504E07F70E0F26BE40B54310
:10335000CF1000F1200646F82750CE1000F12005CE
:1033600055F8265045EA0304CE1000F1200545F833
:103370002640F0BD00000240000402400008024068
:10338000000C0240001002400014024000180240ED
:10339000001C02400020024000240240002802409D
:1033A000002041490860091D0860091D0860091DC9
:1033B00008603E483C4914310860704700213A4992
:1033C0008279002A3AD00A46126803689A430B466B
:1033D0001A600A1D126803689A430B1D1A6002796D
:1033E00011440A6803681A430A602F4A08321268B7
:1033F00003689A432C4B08331A601A1D126803683D
:103400009A43294B0C331A604279102A0ED11A1FA5
:10341000126803681A43244B08331A601A1D126895
:1034200003681A43204B0C331A600DE01E494279A1
:1034300011440A6803681A430A6005E002791144DE
:103440000A6803689A430A607047002101600171AD
:103450000C214171002181717047134910310968B5
:103460000143114A103211607047014600200E4A94
:10347000143212680A400AB1012000E000207047AF
:10348000094914310860704701460020064A143289
:1034900012680A400AB1012000E00020704702498A
:1034A0001431086070470000003C0140FFFF7F00BE
:1034B000F948006840F00100F74908600020F6492B
:1034C00008310860F4480068F4490840F24908608F
:1034D000F348091D0860F348EF4984310860F0485B
:1034E0001038091D0860EC48006820F48020EA4983
:1034F00008600020E8490C310860E7498C31086019
:1035000070470021E44A921C117011460870704700
:1035100010B501460022002300204A11012A02D1E1
:10352000DD4C236808E0022A03D1DB4C70342368A9
:1035300002E0D94C7434236801F01F020124944046
:103540001C400CB1012000E0002010BD38B5002067
:1035500000900024002500BF3120FFF7D9FF054669
:103560000098401C00900098B0F5A04F01D0002DAD
:10357000F2D03120FFF7CCFF08B1012400E0002495
:10358000204638BD01460020C34A106820F0F800EC
:1035900040EAC10010607047C349086070470021CD
:1035A000BD4A703211701170012802D004280AD16E
:1035B00004E00121B84A7032117005E00521B64AD5
:1035C0007032117000E000BF00BF7047B74908605B
:1035D000704770B5049C41EA82150126C6EB53067C
:1035E00045EA0645054345EA0465AB4E361D3560A0
:1035F00070BDAD4908667047820142EA0172A64B70
:1036000084331A607047A8498866704710B58301F3
:1036100043EA016343EA02739F4C8834236010BD80
:10362000A14908677047A049C86470470246002056
:10363000994B0833186820F0EC6042EA0103184304
:10364000954B08331860704702460020924B0833B0
:10365000186820F0784042EA010318438E4B083383
:1036600018607047014600208B4A0832106820F02D
:10367000030008431060704787480830006800F076
:103680000C00704701460020834A0832106820F081
:10369000F000084310607047014600207E4A08325F
:1036A000106820F4E0500843106070470146002085
:1036B000794A0832106820F4604040EAC100106086
:1036C0007047F0B5002100220024022500260223C5
:1036D000714F08373F6807F00C0121B1042905D06C
:1036E000082937D105E0724F076036E0714F076057
:1036F00033E0694F3F1D3F68C7F38056664F3F1D5B
:103700003F6807F03F036EB16A4FB7FBF3F7DFF88E
:1037100088C10CF1040CDCF800C0CCF3881C07FB5A
:103720000CF40CE0624FB7FBF3F7DFF86CC10CF15F
:10373000040CDCF800C0CCF3881C07FB0CF4564FDB
:103740003F1D3F68C7F301477F1C7D00B4FBF5F7C1
:10375000076002E0564F076000BF00BF4E4F0837BA
:103760003F6807F0F0010909534F7A5C0768D740BA
:103770004760494F08373F6807F4E051890A4E4FC8
:103780007A5C4768D7408760434F08373F6807F443
:103790006041490B484F7A5C4768D740C760F0BD2D
:1037A000002100F44072B2F5407F0AD13A4A083253
:1037B000116821F4F811414A02401143364A083297
:1037C0001160354A70321268C0F30B031A43324B52
:1037D00070331A607047354944390860704733497F
:1037E000403908607047364908607047014600203C
:1037F000294A8C32106820F01F004A1E1043264AC6
:103800008C321060704701460020234A8C321068C9
:1038100020F4F8504A1E40EA02201F4A8C32106001
:103820007047014600201C4A8C32106820F440107A
:1038300008431060704701460020174A8C32106818
:1038400020F4400008431060704701460020124AEF
:103850008C32106820F440300843106070471949DA
:103860000860704739B10C4A3032126802430A4B83
:1038700030331A6006E0084A303212688243064B41
:1038800030331A607047F9B1034A34321268024388
:10389000014B34331A601CE000380240FFFFF6EAA7
:1038A000103000240030002000004742800E4742C4
:1038B0000024F40000127A0010010020FFFCFF0F2A
:1038C0005C014742E01147428F4A126882438E4BA7
:1038D0001A60704739B18C4A121D126802438A4B34
:1038E0001B1D1A6006E0884A121D12688243864B2F
:1038F0001B1D1A60704739B1834A0C3212680243AB
:10390000814B0C331A6006E07F4A0C321268824306
:103910007D4B0C331A60704739B17B4A1032126804
:103920000243794B10331A6006E0774A103212686E
:103930008243754B10331A60704739B1724A243A8A
:1039400012680243704B243B1A6006E06E4A243A28
:10395000126882436C4B243B1A60704739B16A4A43
:10396000203A12680243684B203B1A6006E0664A20
:10397000203A12688243644B203B1A60704739B189
:10398000614A1C3A126802435F4B1C3B1A6006E016
:103990005D4A1C3A126882435B4B1C3B1A607047BD
:1039A00039B1594A143A12680243574B143B1A6012
:1039B00006E0554A143A12688243534B143B1A608E
:1039C000704739B1504A103A126802434E4B103BCF
:1039D0001A6006E04C4A103A126882434A4B103B88
:1039E0001A60704739B1484A1C3212680243464B8C
:1039F0001C331A6006E0444A1C3212688243424B70
:103A00001C331A60704739B13F4A203212680243B2
:103A10003D4B20331A6006E03B4A20321268824355
:103A2000394B20331A60704739B1374A2432126853
:103A30000243354B24331A6006E0334A24321268BD
:103A40008243314B24331A60704739B12E4A2C32ED
:103A5000126802432C4B2C331A6006E02A4A2C329F
:103A600012688243284B2C331A60704739B1264ABA
:103A7000303212680243244B30331A6006E0224A87
:103A8000303212688243204B30331A60704701286D
:103A900008D11D493C31096841F008011A4A3C32FD
:103AA000116007E018493C31096821F00801164A05
:103AB0003C321160704739B1134A273A12780243F9
:103AC000114B273B1A7006E00F4A273A12788243BF
:103AD0000D4B273B1A7070470B484030006840F090
:103AE0008070094940310860704701460020064A4D
:103AF000283A12680A400AB1012000E0002070470D
:103B000001492639087070473438024010B5012148
:103B10008803FFF756FF00214FF48040FFF751FF65
:103B200010BD1C49086070471B490862704730B5DA
:103B300000228B071C0F0F2303FA04F2154B0833E6
:103B40008C1053F824309343124C08348D1044F8F1
:103B5000253023468C1053F824308C07240F00FAAC
:103B600004F423430B4C08348D1044F8253030BD49
:103B70000949DC3108607047084908607047002037
:103B800004492031096801F4807109B1012000E085
:103B900000207047003801400000274200042742FF
:103BA00010B50446FA48844208D101211020FFF7DD
:103BB00008FF00211020FFF704FF57E0F54884427A
:103BC00009D101214804FFF7EBFE00214FF400303A
:103BD000FFF7E6FE4AE0F048844209D1012188045B
:103BE000FFF7DEFE00214FF48020FFF7D9FE3DE015
:103BF000EA48844209D10121C804FFF7D1FE00211F
:103C00004FF40020FFF7CCFE30E0E548844209D1B4
:103C100001210805FFF7C4FE00214FF48010FFF7D3
:103C2000BFFE23E0DF48844208D101212020FFF7B6
:103C3000C8FE00212020FFF7C4FE17E0DA488442C6
:103C400009D101218807FFF7ABFE00214FF080402A
:103C5000FFF7A6FE0AE0D548844207D101214005BE
:103C6000FFF79EFE00216005FFF79AFE10BD2DE9CB
:103C7000FF4705460E460024A14600BFA046B08976
:103C800000B100BF2C8A24F44054F08804432C82F5
:103C9000AC8941F20C608443B08831890843718952
:103CA00008430443AC81AC8A24F44074B0890443D3
:103CB000AC826846FFF705FDB548854202D0B94899
:103CC000854202D1DDF80C9001E0DDF80890A8896A
:103CD00000F4004040B109EBC90000EB0910316865
:103CE0004900B0FBF1F707E009EBC90000EB091050
:103CF00031688900B0FBF1F76420B7FBF0F00401F4
:103D00002009642101FB1078A88900F4004040B12B
:103D1000322000EBC800B0FBF1F000F007000443D4
:103D200008E0322000EB08106421B0FBF1F000F055
:103D30000F0004432C81BDE8FF874FF4165101604A
:103D400000218180C18001810C214181002181817C
:103D5000704710B502460020108A20F470600B886E
:103D60004C8823438C882343CC88234318431082F8
:103D700010BD0021018041808180C180704721B148
:103D8000828942F40052828104E082894DF6FF73F9
:103D90001A4082817047028B02F47F420283028BB9
:103DA0000A430283704721B1828942F40042828132
:103DB00003E08289C2F30E028281704721B1828AB8
:103DC00042F40062828204E0828A4FF2FF731A405A
:103DD00082827047C1F3080282807047014688885A
:103DE000C0F308007047028A4FF6F0731A4002824F
:103DF000028A0A430282704721B1828942F002029C
:103E0000828104E082894FF6FD731A4082817047F7
:103E100082894FF2FF731A40828182890A4382812C
:103E20007047028A4FF6DF731A400282028A0A4301
:103E30000282704721B1028A42F48042028204E089
:103E4000028A4BF6FF731A4002827047818941F063
:103E500001018181704721B1828A42F00802828289
:103E600004E0828A4FF6F7731A4082827047028B11
:103E7000D2B20283028B42EA01220283704721B14F
:103E8000828A42F02002828204E0828A4FF6DF7347
:103E90001A408282704721B1828A42F010028282E7
:103EA00004E0828A4FF6EF731A4082827047828A5A
:103EB0004FF6FB731A408282828A0A4382827047DD
:103EC00021B1828A42F00202828204E0828A4FF6A5
:103ED000FD731A40828270471AB1838A0B43838232
:103EE00002E0838A8B4383827047F0B50346002447
:103EF00000260025002040F66A17B94200D100BF15
:103F00001846C1F3421401F01F06012707FA06F50F
:103F1000012C01D10C3004E0022C01D1103000E062
:103F200014301AB107682F43076002E00768AF43F7
:103F30000760F0BD02460020B1F5007F00D100BF50
:103F400013880B400BB1012000E00020704701F402
:103F50000072B2F5007F00D100BFCA4302807047F3
:103F600070B50246002400230025002040F66A16A2
:103F7000B14200D100BFC1F3421501F01F03012679
:103F800006FA03F3012D13D19689334017E00000A0
:103F9000001001400044004000480040004C004038
:103FA000005000400014014000780040007C0040B8
:103FB000022D02D1168A334001E0968A33400C125A
:103FC000012606FA04F41688344013B10CB101201E
:103FD00000E0002070BD10B50022002340F66A14F6
:103FE000A14200D100BF0A1201249440A3B2DC43D5
:103FF000048010BD10B50446FE48844209D1012159
:104000004806FFF7CDFC00214FF00070FFF7C8FC19
:1040100008E001218806FFF7C3FC00214FF0806013
:10402000FFF7BEFC10BD30B5024600200023146827
:1040300024F002041460146844F00104146000E0E9
:104040005B1C546804F001041CB94FF6FF74A342D2
:10405000F6D1546804F001040CB900206CE08C79AE
:10406000012C04D1146844F08004146003E0146847
:1040700024F080041460CC79012C04D1146844F03D
:104080004004146003E0146824F0400414600C7AC7
:10409000012C04D1146844F02004146003E0146877
:1040A00024F0200414604C7A012C04D1146844F0EC
:1040B0001004146003E0146824F0100414608C7A77
:1040C000012C04D1146844F00804146003E014685F
:1040D00024F008041460CC7A012C04D1146844F054
:1040E0000404146003E0146824F0040414608C7861
:1040F000A407CD7844EA05640D7944EA05444D7976
:1041000044EA05540D886D1E2C43D461146824F0D4
:1041100001041460002300E05B1C546804F00104F7
:104120001CB14FF6FF74A342F6D1546804F00104A9
:104130000CB1002000E0012030BD10B50021837AD1
:10414000012202FA03F1AC4A126842F00102AA4BC2
:104150001A60A94A1C3212688A43A74B1C331A60A2
:10416000027BCAB9A44A0C3212688A43A24B0C33B0
:104170001A604288C38842EA03439F4A4032847AE5
:1041800042F834300288838842EA03439A4A403234
:10419000847A02EBC4025360027B012A19D1964A49
:1041A0000C3212680A43944B0C331A60428803881D
:1041B00042EA0343904A4032847A42F83430C2885B
:1041C000838842EA03438C4A4032847A02EBC40279
:1041D0005360C27A3AB9884A121D12688A43864BE4
:1041E0001B1D1A6006E0844A121D12680A43824BA6
:1041F0001B1D1A60028932B97F4A143212688A4341
:104200007D4B14331A600289012A06D17A4A14328E
:1042100012680A43784B14331A60427B012A06D194
:10422000754A1C3212680A43734B1C331A60724A77
:10423000126822F00102704B1A6010BD00218171DA
:10424000C171017241728172C1728170C1700321AA
:10425000017102214171012101807047664909689D
:1042600041F00101644A11601146096843F60E727B
:104270009143614A11601146096841EA00211160C9
:104280001146096821F001011160704721B10268EF
:1042900042F48032026003E0026822F4803202605D
:1042A0007047E1B1026842F0800202604FF4C272CE
:1042B000125842F480734FF4C27213504FF4CA7212
:1042C000125842F480734FF4CA7213504FF4D272F2
:1042D000125842F480734FF4D27213501BE00268FC
:1042E00022F0800202604FF4C272125822F48073EE
:1042F0004FF4C27213504FF4CA72125822F48073F2
:104300004FF4CA7213504FF4D272125822F48073D1
:104310004FF4D2721350704710B5024600209368D4
:1043200003F08063B3F1806F00D110E0936803F075
:104330000063B3F1006F01D1012008E0936803F03E
:104340008053B3F1805F01D1022000E004200428F3
:1043500079D002F5C07303EB00131B6803F001046E
:1043600002F5C07303EB00131C600B7A7BB94B7A28
:104370000C8843EA445302F5C07404EB001424682B
:10438000234302F5C07404EB0014236010E00B7AA1
:104390004C6843EAC4034C7A234302F5C07404EB2F
:1043A00000142468234302F5C07404EB0014236056
:1043B0008B7A03F00F038B7202F5C07303EB0013CB
:1043C0005B6823F00F0402F5C07303EB00135C601D
:1043D00002F5C07303EB00135B688C7A234302F58C
:1043E000C07404EB001463608B7B1C064B7B44EAB7
:1043F000034403E000640040006600400B7B44EA95
:104400000323CC7A234302F5C07404EB0014A360A9
:104410008B7C1C064B7C44EA03440B7C44EA03235C
:10442000CC7B234302F5C07404EB0014E36002F577
:10443000C07303EB00131B6843F0010402F5C07363
:1044400003EB00131C6010BD10B50246002321B120
:10445000012907D002290FD109E09068F94C00EA40
:1044600004030BE09068F84C00EA040306E090684F
:10447000F64C00EA040301E0002300BF00BFF44C47
:10448000181BA34216D007DC83B16FF0806018447C
:1044900070B1022818D111E0B0F5007F10D0ED4CBA
:1044A000204448B1B0F5003F0ED10BE002230DE0EF
:1044B00000230BE0002309E0002307E0012305E0CF
:1044C000012303E0012301E0002300BF00BFD8B2B5
:1044D00010BD21B1012907D002290FD109E082685E
:1044E00042F0800282600AE0826842F40042826008
:1044F00005E0826842F40002826000E000BF00BF75
:10450000704710B500F5D87303EB01131B6803F077
:1045100004031372137A53B900F5D87303EB011334
:104520001B6840F2FF7404EA5353136009E000F57E
:10453000D87303EB01131B686FF0604404EAD303E4
:10454000536000F5D87303EB01131B6803F00203FB
:10455000537200F5D87303EB01135B6803F00F038C
:10456000937200F5D87303EB01135B681B0AD374D5
:1045700000F5D87303EB01139B68D37200F5D87371
:1045800003EB01139B681C0A147300F5D87303EB4B
:1045900001139B681C0C547300F5D87303EB0113D3
:1045A0009B681B0E937300F5D87303EB0113DB6854
:1045B000D37300F5D87303EB0113DB681C0A147482
:1045C00000F5D87303EB0113DB681C0C547400F581
:1045D000D87303EB0113DB681B0E937421B9C36816
:1045E00043F02003C36003E0036943F02003036149
:1045F00010BD21B9C26842F02002C26003E0026926
:1046000042F02002026170470246002019B9D368C7
:1046100003F0030006E0012903D1136903F003004E
:1046200000E00020704710B502460B4600204FF610
:10463000FF71BBB9146824F0020444F00104146053
:1046400000E0491E546804F00304012C01D0002945
:10465000F7D1546804F00304012C01D0002032E0AB
:10466000012030E0012B13D1146824F003041460FE
:1046700000E0491E546804F003040CB10029F8D18D
:10468000546804F003040CB100201CE001201AE07F
:10469000022B17D1146824F0010444F002041460C2
:1046A00000E0491E546804F00304022C01D00029E4
:1046B000F7D1546804F00304022C01D0002002E07A
:1046C000012000E0002010BD014600200A6822F011
:1046D000010242F002020A604A6802F00302022A62
:1046E00000D10120704701464FF6FF7200200B6891
:1046F00023F002030B6000E0521E4B6803F002033C
:10470000022B01D1002AF7D14B6803F00203022BE0
:1047100000D001207047014600208A6902F0700035
:104720007047014600208A69100E7047014600203C
:104730008A69C2F3074070471AB143690B4343616A
:1047400002E043698B434361704710B50246002085
:1047500001F4700343B19369C1F3130423400BB117
:1047600001202DE000202BE001F0807343B153685D
:10477000C1F3130423400BB1012021E000201FE00E
:1047800001F0006343B19368C1F3130423400BB1FC
:10479000012015E0002013E001F0007343B1D3685D
:1047A000C1F3130423400BB1012009E0002007E00E
:1047B0001369C1F3130423400BB1012000E0002072
:1047C00010BD0022244B994202D10023836111E0E5
:1047D000C1F3130201F000730BB1C2600AE001F0F3
:1047E00080630BB1026105E001F000630BB18260F0
:1047F00000E0426070470246002002EA01030BB16C
:10480000012000E00020704770B504460D460026E8
:1048100060692840002872D0B5F5807F69D01DDC22
:10482000082D42D006DC012D2DD0022D31D0042DD3
:104830007FD134E0102D3ED0202D42D0402D78D1B4
:1048400045E000000300000400030008000003101E
:10485000000100080001FFF77000F030B5F5004FCF
:1048600061D009DCB5F5007F4AD0B5F5806F4DD039
:10487000B5F5006F5DD150E0B5F5803F2DD0B5F5B1
:10488000003F56D12FE0A0685549FFF7B4FF064618
:1048900051E0E0680321FFF7AEFF06464BE0E06819
:1048A0000821FFF7A8FF064645E0E0681021FFF762
:1048B000A2FF06463FE020690321FFF79CFF064662
:1048C00039E020690821FFF796FF064633E02069AA
:1048D0001021FFF790FF06462DE060680821FFF7E2
:1048E0008AFF064627E060681021FFF784FF06462E
:1048F00021E0A0690121FFF77EFF06461BE01BE0D7
:10490000A0690221FFF777FF064614E0A0690421A1
:10491000FFF771FF06460EE00BE0A0697021FFF77C
:104920006AFF064607E060680421FFF764FF064659
:1049300001E0002600BF00E00026304670BDB1F562
:10494000007F3AD00FDC202928D006DC01291CD0BA
:1049500004291DD0082940D11DE0402921D0B1F5FE
:10496000807F3AD126E0B1F5004F31D006DCB1F5B9
:10497000806F25D0B1F5006F2FD124E0B1F5803FD5
:1049800012D0B1F5003F28D111E0154A826025E030
:104990000822C26022E01022C2601FE008220261E9
:1049A0001CE01022026119E00822426016E0102289
:1049B000426013E00422426010E0042242600DE0F5
:1049C000042242600AE0002282610422426005E083
:1049D000002282610422426000E000BF00BF7047F5
:1049E00001010100FE4A1070704730B1FC490968AE
:1049F00041F48071FA4A116005E0F949096821F42F
:104A00008071F74A1160704730B1F549096841F487
:104A10000071F34A116005E0F149096821F4007161
:104A2000EF4A1160704730B1ED49096841F4806187
:104A3000EB4A116005E0EA49096821F48061E84A1F
:104A400011607047E648006840F40060E44908607F
:104A50007047E348006840F48050E14908607047BF
:104A6000DF481030006800F0004028B1DD48DC4924
:104A7000091D0860DC4808607047D948103000689C
:104A800040F00040D6491031086070470920D449F1
:104A90000C31096801F48031B1F5803F01D101206A
:104AA00020E0CF490C31096801F0100109B106205E
:104AB00018E0CB490C31096801F4807109B102207A
:104AC00010E0C7490C31096801F0EF0109B1072076
:104AD00008E0C3490C31096801F0020109B108205E
:104AE00000E00920704708B509200090FFF7CEFFCD
:104AF000009002E0FFF7CAFF00909DF80000012837
:104B0000F8D09DF8000008BD70B504460A4600269E
:104B1000092502B909E0012A01D1160205E0022A9D
:104B200001D1160201E04FF44076FFF7DCFF0546A5
:104B3000092D2DD1AA481030006820F44070A849F2
:104B40001031086008460068304308600846006875
:104B500020F0F80008600846006844F002010843AD
:104B60009F49103108600846006840F480300860B2
:104B7000FFF7B9FF05469A481030006820F00200A0
:104B80009749103108600846006820F0F800086076
:104B9000284670BD30B5024600250924FFF7A3FF63
:104BA000044602B909E0012A01D1150205E0022AF2
:104BB00001D1150201E04FF44075092C20D188483D
:104BC0001030006820F440708549103108600846B4
:104BD0000068284308600846006840F00400086048
:104BE0000846006840F480300860FFF77CFF044608
:104BF0007B481030006820F00400794910310860CB
:104C0000204630BD30B5024600250924FFF76BFF72
:104C1000044602B909E0012A01D1150205E0022A81
:104C200001D1150201E04FF44075092C20D16C48E8
:104C30001030006820F4407069491031086008465F
:104C40000068284308600846006840F004000860D7
:104C50000846006840F480300860FFF744FF0446CF
:104C60005F481030006820F004005D491031086092
:104C7000204630BD30B5024600250924FFF733FF3A
:104C8000044602B909E0012A01D1150205E0022A11
:104C900001D1150201E04FF44075092C20D1504894
:104CA0001030006820F440704D491031086008460B
:104CB0000068284308600846006840F40040086027
:104CC0000846006840F480300860FFF70CFF044697
:104CD00043481030006820F400404149103108601A
:104CE000204630BD70B5064614461D460922FFF722
:104CF000FAFE0246092A1ED139481030006820F415
:104D000040703749103108600846006840F4407030
:104D100008600846006840F0010008603460756073
:104D2000FFF7E1FE02462E481030006820F0010037
:104D30002B4910310860104670BD30B502460C4654
:104D40000925FFF7D0FE0546092D1DD12448103056
:104D5000006820F44070224910310860084600685D
:104D600040F4007008600846006840F001000860E8
:104D70001460FFF7B8FE054619481030006820F0AF
:104D80000100174910310860284630BD30B5024691
:104D90000C460925FFF7A7FE0546092D1DD1104831
:104DA0001030006820F440700D491031086008464A
:104DB000006840F4807008600846006840F0010018
:104DC00008601480FFF78FFE054605481030006824
:104DD00020F00100024910310860284630BD000073
:104DE000003C024023016745AB89EFCD30B5024658
:104DF0000C460925FFF777FE0546092D17D19B487C
:104E0000006820F44070994908600846006808600E
:104E10000846006840F0010008601470FFF763FE68
:104E200005469248006820F0010090490860284635
:104E300030BD8E48001D006800F0010028B18C488C
:104E40008A49083908608B48086070478748001D08
:104E5000006840F001008549091D0860704730B5C1
:104E600002460C460925FFF73EFE0546092D10D1E6
:104E70003CB17E48801D008890437C49891D088094
:104E800007E07A48801D008891B208437749891D60
:104E9000088030BD30B502460C460925FFF723FED9
:104EA0000546092D10D13CB170480A300088904366
:104EB0006E490A31088007E06C480A30008891B2D8
:104EC00008436A490A31088030BDFF21674AD21D74
:104ED000127802F07F0140EA0102644BDB1D1A7078
:104EE000704730B502460C460925FFF7FCFD054624
:104EF000092D10D144B15D48801D008891B208434E
:104F00005A49891D088006E05848801D0088904352
:104F10005649891D088030BD30B502460C4609252A
:104F2000FFF7E1FD0546092D10D144B14F480A3085
:104F3000008891B208434D490A31088006E04B4889
:104F40000A300088904349490A31088030BD10B5C5
:104F500002460924FFF7C7FD0446092C02D1434845
:104F6000401D027010BDF0B504460D46FF2609270E
:104F7000FFF7B9FD0746092F0BD13C48001D00780B
:104F800000F00F0645EA0600104320433749091D8B
:104F90000870F0BD3549091D097821F01001334A28
:104FA000121D1170114609780143117070472F4985
:104FB000091D097821F00C012C4A121D11701146AF
:104FC000097801431170704700B509222748001D78
:104FD000007840F002002549091D0870FFF783FDA5
:104FE0000246104600BD2148001D0068C0F347106E
:104FF00070471E48801D008870471C480A30008892
:1050000070471A48801D0088704718480A30008889
:10501000704700201549491D0978AA2901D00120AF
:1050200000E0002070471148001D007800F00C00DF
:10503000704729B10D4A126802430C4B1A6004E014
:105040000A4A12688243094B1A60704701460020E1
:10505000064A121F12680A400AB1012000E000202F
:1050600070470249091F086070470000103C024069
:105070003B2A19087F6E5D4C10B50446FE488442F9
:1050800008D101210846FEF79CFC00210120FEF713
:1050900098FC9DE0B4F1804F08D101210846FEF74D
:1050A0007FFC00210120FEF77BFC91E0F348844265
:1050B00008D101210220FEF773FC00210220FEF737
:1050C0006FFC85E0EE48844208D101210420FEF700
:1050D00067FC00210420FEF763FC79E0E948844284
:1050E00008D101210820FEF75BFC00210820FEF713
:1050F00057FC6DE0E448844208D101211020FEF7FE
:105100004FFC00211020FEF74BFC61E0DF48844299
:1051100008D101212020FEF743FC00212020FEF7CA
:105120003FFC55E0DA48844208D101210220FEF715
:1051300048FC00210220FEF744FC49E0D5488442A7
:1051400009D101210804FEF73CFC00214FF4803016
:10515000FEF737FC3CE0D048844209D101214804E5
:10516000FEF72FFC00214FF40030FEF72AFC2FE061
:10517000CA48844209D101218804FEF722FC00219B
:105180004FF48020FEF71DFC22E0C548844208D180
:1051900001214020FEF704FC00214020FEF700FC26
:1051A00016E0C048844208D101218020FEF7F8FBB8
:1051B00000218020FEF7F4FB0AE0BB48844207D1BF
:1051C00001218015FEF7ECFB0021A015FEF7E8FB9E
:1051D00010BD00220288A84B98420ED0AC4B9842DA
:1051E0000BD0B0F1804F08D0A44B984205D0A44B0F
:1051F000984202D0A34B984204D14FF68F731A40C5
:105200004B881A43A04B984207D0A04B984204D039
:105210004FF6FF431A400B891A4302804B68C36262
:105220000B880385944B984202D0994B984201D148
:105230008B7A03860123838270474FF0FF314160F0
:105240000021018001814180817270470185828245
:1052500070470A46002101884FF68F7319401143A9
:105260000180704741627047C16270470146486AD9
:1052700070470146088D704721B1028842F0020252
:10528000028004E002884FF6FD731A4002807047E6
:1052900021B1028842F00402028004E002884FF645
:1052A000FB731A400280704721B1028842F08002ED
:1052B000028004E002884FF67F731A400280704734
:1052C00002884FF6F7731A40028002880A43028070
:1052D000704702884FF6FF431A40028002880A4353
:1052E0000280704721B1028842F00102028004E08E
:1052F00002884FF6FE731A400280704770B5002492
:1053000000220023058C4FF6FE7635400584028C82
:105310008388048B4FF68F752C40B51E2C400D886A
:105320002C43751E2A408D892A434D882A43524DAD
:10533000A84202D0564DA84213D14FF6F7752A4025
:10534000CD892A434FF6FB752A408D882A434FF6B4
:10535000FF652B404FF6FF552B400D8A2B434D8A9E
:105360002B43838004838D684563028470BD70B5D0
:10537000002400220023058C4FF6EF76354005848B
:10538000028C8388048B48F6FF752C404FF6FF454E
:105390002C400D884FF6FF7606EA05252C434FF684
:1053A000DF752A408D8906EA05152A434D8806EAED
:1053B00005152A43304DA84202D0354DA8421DD1D3
:1053C0004FF67F752A40CD894FF6FF7606EA051520
:1053D0002A434FF6BF752A408D8806EA05152A43F1
:1053E0004FF6FF352B404FF2FF752B400D8A06EA32
:1053F00085052B434D8A06EA85052B43838004836C
:105400008D688563028470BD70B50024002200237E
:10541000058C4FF6FF6635400584028C8388848BAB
:105420004FF68F752C404FF6FC752C400D882C43A1
:105430004FF6FF552A408D894FF6FF7606EA05257F
:105440002A434D8806EA05252A430B4DA84202D07F
:105450000F4DA84238D14FF2FF752A40CD894FF643
:10546000FF7606EA05252A434FF6FF352A408D8848
:1054700006EA05252A4319E0000001400004004027
:1054800000080040000C00400010004000140040E4
:105490000004014000400140004401400048014038
:1054A00000180040001C0040002000404EF6FF7530
:1054B0002B404DF6FF752B400D8A06EA05152B4350
:1054C0004D8A06EA05152B43838084838D68C56366
:1054D000028470BD70B5002200230024058C4EF6B6
:1054E000FF7635400584038C8488828B48F6FF75EF
:1054F0002A404FF6FF452A400D884FF6FF7606EA10
:1055000005252A434DF6FF752B408D8906EA0535A2
:105510002B434D8806EA05352B43FE4DA84202D0A9
:10552000FD4DA84208D14BF6FF752C400D8A4FF671
:10553000FF7606EA85152C43848082838D68056496
:10554000038470BD00210180418081808160818160
:10555000C18101824182704770B50346002000245A
:105560001846183001258D40ACB21D8CA5431D8412
:1055700009B108290AD100EB610005684FF68F7662
:10558000354005600568154305600FE00D1FC5F344
:105590004E052844056848F6FF76354005600568E5
:1055A0004FF6FF7606EA02263543056070BD41637B
:1055B000704781637047C1637047016470470A4652
:1055C0000021018B4FF68F731940114301837047FF
:1055D0000A460021018B48F6FF7319404FF6FF730E
:1055E00003EA02231943018370470A460021818B95
:1055F0004FF68F7319401143818370470A4600218B
:10560000818B48F6FF7319404FF6FF7303EA0223BC
:105610001943818370470A460021018B4FF6F773C7
:1056200019401143018370470A460021018B4FF254
:10563000FF7319404FF6FF7303EA022319430183F6
:1056400070470A460021818B4FF6F77319401143CA
:10565000818370470A460021818B4FF2FF73194006
:105660004FF6FF7303EA02231943818370470A460A
:105670000021018B4FF6FB731940114301837047E2
:105680000A460021018B4FF6FF3319404FF6FF7396
:1056900003EA02231943018370470A460021818BE4
:1056A0004FF6FB7319401143818370470A4600216E
:1056B000818B4FF6FF3319404FF6FF7303EA022345
:1056C0001943818370470A460021018B4FF67F738F
:1056D00019401143018370470A460021018BC1F331
:1056E0000E014FF6FF7303EA02231943018370474B
:1056F0000A460021818B4FF67F7319401143818345
:1057000070470A460021818BC1F30E014FF6FF73EB
:1057100003EA02231943818370470A460021018C62
:105720004FF6FD7319401143018470470A4600216A
:10573000018C4FF6F77319401143018470470A46F4
:105740000021018C4FF6DF7319404FF6FF7303EA17
:1057500002131943018470470A460021018C4FF659
:105760007F7319404FF6FF7303EA02131943018454
:1057700070470A460021018C4FF6FF5319404FF63F
:10578000FF7303EA02231943018470470A4600218C
:10579000018C4FF2FF7319404FF6FF7303EA0223A7
:1057A0001943018470470A460021018C4DF6FF73AE
:1057B00019404FF6FF7303EA02331943018470471F
:1057C00030B5002301248C40A3B2048C9C43048494
:1057D000048C02FA01F5ADB22C43048430BD30B51F
:1057E000002304248C40A3B2048C9C430484048CC6
:1057F00002FA01F5ADB22C43048430BD828B4FF226
:10580000FF331A408283828B4FF6FF7303EA012332
:105810001A4382837047F0B50C46154600210022DA
:105820000026078C4EF6FF7C07EA0C070784818B65
:10583000028C4FF6FF7707EA043640F6FF473940FF
:105840004FF6FF7707EA052739434FF6FF7707EA58
:105850000337394345F6FF773A4046F480573A43D9
:1058600081830284F0BD828B4FF6F3731A408283EA
:10587000828B0A4382837047F0B50C46154600219F
:1058800000220026078C4FF6FF6C07EA0C070784FE
:10589000818B028C4FF6FF7707EA04264FF60C77D0
:1058A00039404FF6FF7707EA03172F4339434FF28A
:1058B000FF573A4046F480773A4381830284F0BD33
:1058C000028B4FF2FF331A400283028B4FF6FF73B5
:1058D00003EA01231A4302837047F0B50C461546CC
:1058E000002100220026078C4FF6EF7C07EA0C0708
:1058F0000784018B028C4FF6FF7707EA041640F607
:10590000FF4739404FF6FF7707EA033739434FF631
:10591000FF7703E0000001400004014007EA05278B
:1059200039434FF65F773A4046F010073A43018318
:105930000284F0BD028B4FF6F3731A400283028B90
:105940000A4302837047F0B50C4615460021002239
:10595000068C4FF6FE773E400684018B028C4FF694
:105960000C7631407E1C06EA03162E4331434FF677
:10597000F576324044F00106324301830284F0BDE3
:1059800070B505460C46208850B92389A2886188E5
:105990002846FFF7D8FFE1882846FFF7CBFF25E030
:1059A000208804280AD12389A28861882846FFF725
:1059B00094FFE1882846FFF783FF17E02088082836
:1059C0000AD12389A28861882846FFF755FFE1881C
:1059D0002846FFF748FF09E02389A2886188284606
:1059E000FFF719FFE1882846FFF708FF70BD002187
:1059F00001804180012181800021C18001817047A7
:105A00002DE9F04105460C4600260127608808B9BB
:105A1000022600E00026A088012801D1022700E02C
:105A200001272088A0B92389A28861882846FFF72A
:105A30008AFFE1882846FFF77DFF23893A463146F1
:105A40002846FFF74AFFE1882846FFF739FF13E0B1
:105A50002389A28861882846FFF73FFFE18828460E
:105A6000FFF72EFF23893A4631462846FFF76BFFA2
:105A7000E1882846FFF75EFFBDE8F0810146486BEC
:105A800070470146886B70470146C86B70470146F6
:105A9000086C70470A884B881A438B881A43CB8856
:105AA0001A430B891A434B891A438B891A43A0F86E
:105AB000442070470021018041808180C1800181A4
:105AC00041818181704731B1B0F8442042F40042F5
:105AD000A0F8442005E0B0F84420C2F30E02A0F87C
