:020000040800F2
:10000000980E002025290008290400082B04000868
:100010002F04000833040008370400080000000023
:100020000000000000000000000000003B04000889
:100030003D040008000000003F040008D32700082A
:100040003F2900083F2900083F2900083F290008F0
:100050003F2900083F2900083F2900083F290008E0
:100060003F2900083F2900083F2900083F290008D0
:100070003F2900083F2900083F2900083F290008C0
:100080003F2900083F2900083F2900083F290008B0
:10009000292300083F2900083F2900083F290008BC
:1000A000D7120008491F0008891F00083F290008CF
:1000B000E91200083F2900083F2900083F290008ED
:1000C0003F2900083F2900083F2900083F29000870
:1000D0003F290008836E00083F2900080F2600080A
:1000E0003F2900083F2900083F2900083F29000850
:1000F0003F2900083F2900083F2900083F29000840
:100100003F2900083F290008011300083F29000883
:100110003F2900083F290008295700082F1D000823
:100120003F2900083F2900083F2900083F2900080F
:100130003F2900083F2900083F2900083F290008FF
:10014000E32300083F2900083F2900083F29000851
:100150003F2900083F2900083F2900083F290008DF
:100160003F2900083F2900083F2900083F290008CF
:100170003F2900083F2900083F2900083F290008BF
:100180003F2900083F29000800F002F800F0B2F80B
:100190000AA090E8000C82448344AAF10107DA45E2
:1001A00001D100F0A7F8AFF2090EBAE80F0013F082
:1001B000010F18BFFB1A43F001031847A89600006F
:1001C000C89600000A444FF0000C10F8013B13F0F1
:1001D000070408BF10F8014B1D1108BF10F8015BA0
:1001E000641E05D010F8016B641E01F8016BF9D193
:1001F00013F0080F1EBF10F8014BAD1C0C1B09D1EA
:100200006D1E58BF01F801CBFAD505E014F8016B5B
:1002100001F8016B6D1EF9D59142D6D370470000ED
:100220000023002400250026103A28BF78C1FBD8FF
:10023000520728BF30C148BF0B6070476E2907F0D6
:100240009780702907F0EB81662908F030856529D1
:1002500008F02D85672908F02A85612908F029858D
:1002600003681B0A28BF41F08001692906F08086D7
:10027000642906F07D86752906F07A866F2907F0D5
:100280007981782907F0B781E92907F01381E429FA
:1002900007F01081F52907F00D81EF2907F076812D
:1002A000F82907F0B6810368DB0928BF41F0800117
:1002B000632907F09985732907F09E85E32907F0E4
:1002C000A985F32907F0AE85002070471FB508F017
:1002D000E4FC07F0FDFD04000020002108F0E4FA32
:1002E000401C60600020002108F0C8FAE0601FBDDB
:1002F00010B510BD07F0BEFD1146FFF7E7FF00F097
:100300003DF807F097FE03B4FFF7F2FF03BC02F0DD
:10031000C5F9000010B502F02BFA00F0D5FCA820BA
:1003200002F07EFA00F0EEFC00F076FC01F073F9CA
:1003300002F074F801F09DFF00F01CFE00F071FE69
:1003400001F0A2FB42F2CF0141F2873001F0C3FC81
:1003500042F2CF01632001F092FC02F097F802F024
:10036000BEF84FF4165002F0A7F94FF4165002F001
:10037000F7F84FF4A06002F0F5FA10BDFFF7CAFFDE
:100380001FA002F0C9F800204FF08041486235E01C
:100390001D48008800F4004008B100F03EFA022039
:1003A00000F07DFF194908601948007810B119481C
:1003B000007810B91848006858B1002000F0EBFB35
:1003C00000F046F9002012490870134908601149ED
:1003D00008701248006888B91148006870B90D4863
:1003E000007858B900200E49843108600D49C1F8E1
:1003F000980200F02DF9012006490870C8E70000B6
:1004000053544152540D0A00AE00002094000020C5
:1004100038000020240000202C000020300241423F
:100420000482414200804142704700BFFEE700BFA6
:10043000FEE700BFFEE700BFFEE77047704770476A
:100440000CB50020019000907648006840F48030A0
:100450007449086000BF7348006800F400300090E1
:100460000198401C0190009818B90198B0F5A04F70
:10047000F1D16C48006800F4003010B10120009008
:1004800001E0002000900098012846D165484030E6
:10049000006840F08050634940310860624800685D
:1004A00040F44040604908605E48083000685D499B
:1004B000083108600846006840F4004008600846BB
:1004C000006840F4A05008605848091F0860081FE1
:1004D000006840F08070091F086000BF5148006844
:1004E00000F000700028F9D040F205705049086013
:1004F0004C480830006820F003004A490831086081
:100500000846006840F00200086000BF4548083017
:10051000006800F00C000828F8D10CBD10B5454863
:10052000006840F47000434908603E48006840F0AD
:1005300001003C49086000203A4908310860394808
:1005400000683D490840374908603C48091D08607B
:10055000081F006820F48020091F0860002031492E
:100560000C310860FFF76CFF4FF0006031498039B3
:10057000086010BD70B50020002202230024022173
:10058000284D08352D6805F00C0020B1042806D050
:10059000082834D107E02A4D2A4E356033E02A4D31
:1005A000284E35602FE01F4D2D1D2D68C5F380545A
:1005B0001C4D2D1D2D6805F03F0154B1224DB5FB9A
:1005C000F1F5184E361D3668C6F3881605FB06F29F
:1005D00009E01B4DB5FBF1F5124E361D3668C6F32A
:1005E000881605FB06F20F4D2D1D2D68C5F301453C
:1005F0006D1C6B00B2FBF3F5124E356003E0104D3D
:10060000104E356000BF00BF064D08352D68C5F39C
:1006100003150E4E705D0B4D2D68C540094E3560BB
:1006200070BD0000003802400070004008544007D0
:10063000003C024088ED00E0FFFFF6FE1030002491
:100640000024F4000000002000127A0004000020C2
:1006500070B50020FD4908700BE0002504E04FF460
:10066000FA7004F035FF6D1C40F2DC508542F6DB79
:10067000641CC82CF1DB03E04FF4FA7004F028FF8F
:10068000F34800680028F7D104F022FF4FF08040C3
:10069000406AF049086008460068EF490860012098
:1006A000EA49087070BD00EB4001EC4A02EBC10161
:1006B000496901EB81014900E94A116000BFE9493C
:1006C0000968E94A116011460968E54A12689142D1
:1006D000F5D10021E54A1170E54A1160E54A116043
:1006E000E04A11600121E44A1160E44AC2F8801234
:1006F00070470021DD4A11700121E14A117000EBC1
:100700004001D64A02EBC101896801EB8101490031
:10071000DC4A116000BFD3490968D34A116000EB7D
:100720004001CE4A02EBC101C96801EB8101CE4A0A
:100730001268B2EB410FEED10021D34A116000BF25
:10074000C8490968C84A116000EB4001C34A02EB7E
:10075000C101096901EB8101C34A1268B2EB410F83
:10076000EED10021C64A11700121C04A117000EB80
:100770004001BA4A02EBC101096901EB810149005C
:10078000B74A1160704710B504460120BE490860A1
:100790004FF4FA7002F0A6F804EB4400AF4901EB05
:1007A000C000406800EB80004000AD49086000BF19
:1007B000AC480068AC49086008460068A849096868
:1007C0008842F5D10020AC4908604FF4FA7002F07D
:1007D00089F810BD10B504460020AB4908604FF4FD
:1007E000FA7002F07FF80120A049087004EB440081
:1007F0009A4951F83000404200EB8000400098498F
:10080000086000BF9748006897490860084600687C
:10081000934909688842F5D110BD08B59B48007816
:10082000652827D101208A49503108604FF4FA70B9
:1008300002F058F800209649C1F8880293484078A1
:10084000312803D10020934908600EE08F4840789A
:10085000322803D101208F49086006E08B48407898
:10086000332802D102208B4908608A4801688AA097
:1008700001F052FE8548007849281FD101207449B3
:10088000503108604FF4FA7002F02CF800208049D3
:10089000C1F888027F480068FFF79CFF87A001F03D
:1008A0003BFE704800680090764803686A4802681A
:1008B0006B480168874801F02FFE58E173480078C3
:1008C00050281FD101206249503108604FF4FA705E
:1008D00002F008F800206E49C1F888026D480068EF
:1008E000FFF751FF7CA001F017FE5E480068009002
:1008F000644803685848026859480168754801F01F
:100900000BFE34E16148007846281FD10120504990
:10091000503108604FF4FA7001F0E4FF00205C49A8
:10092000C1F888025B480068FFF7E3FE70A001F0A1
:10093000F3FD4C480068009052480368464802683E
:1009400047480168634801F0E7FD10E14F4800782F
:100950004A281FD101203E49503108604FF4FA70F7
:1009600001F0C0FF00204A49C1F8880249480068E8
:10097000FFF799FE63A001F0CFFD3A4800680090B0
:10098000404803683448026835480168514801F01E
:10099000C3FDECE03D480078542807D12C48503086
:1009A0000068C0433A49C1F88802E0E0374800785F
:1009B00070281DD101202649503108604FF4FA708B
:1009C00001F090FF00203249C1F888022B48D0F88E
:1009D0008002C0432949C1F880025048D0F8A802DB
:1009E000C0434E49C1F8A8024DA001F095FDBEE0FC
:1009F000264800784F2811D1012015495031086050
:100A00004FF4FA7001F06EFF00202149C1F888020E
:100A1000FFF71EFE48A001F07FFDA8E01B4800780C
:100A20004D2803D101204A490860A0E0174800780A
:100A300045280AD101200649503108604FF4FA7068
:100A400001F050FF0020124984E090E029000020CE
:100A500038024242940000201C0000203C0000208C
:100A600018000020240C00409000002028000020E6
:100A7000DC000020E0000020A8024142008041424A
:100A800026000020200000208082414290060020A5
:100A900000004242840000204E6F77207468652079
:100AA000456A656374696F6E5F706F696E74206903
:100AB00073204E6F2E25640D0A000000496E697484
:100AC0005F506F736974696F6E5F446F6E650D0A76
:100AD0000000000018980008507265706172655F30
:100AE000506F736974696F6E5F446F6E650D0A00B5
:100AF000466972655F615F686F6C655F446F6E65C4
:100B00000D0A00004261636B5F616E645F4C61754A
:100B10006E63685F446F6E650D0A0000000041421D
:100B2000706E65756D617469635F746573745F443D
:100B30006F6E650D0A0000004F726967696E616C27
:100B4000506F736974696F6E5F446F6E650D0A0054
:100B50002C000020C1F888021E4908701E49087048
:100B60001E4908701E4908701EA001F0D5FC2348DC
:100B7000007853280BD12248006800902148036870
:100B80002148026821480168214801F0C5FC002085
:100B90002049088008BD10B504462046FFF71AFE1C
:100BA0004FF47A7001F09EFE2046FFF7ECFD4FF403
:100BB0007A7001F097FE2046FFF79BFD4FF47A70A4
:100BC00001F090FE2046FFF76EFD4FF47A7001F0C1
:100BD00089FE10BD260000202700002028000020EC
:100BE00029000020456D657267656E63795F7374D7
:100BF0006F705F446F6E650D0A0000009006002064
:100C0000240C0040200000201C00002018000020C0
:100C100018980008AE0000201CB50121082002F041
:100C200035FA4FF47060009001208DF80400002028
:100C30008DF8060003208DF8050001208DF80700CF
:100C400069461E4801F084FF0121062002F01EFAC9
:100C50004FF44040009001208DF8040000208DF8F2
:100C6000060003208DF8050001208DF80700694675
:100C7000134801F06DFF4FF48060009001208DF863
:100C8000040000208DF8060003208DF805000120E7
:100C90008DF8070069460B4801F05AFF4FF4806158
:100CA000084801F0D1FF4FF47061044801F0CCFF17
:100CB0004FF44041024801F0C7FF1CBD000C024048
:100CC00000040240000802401CB50121102002F07F
:100CD000DDF90420009001208DF8040000208DF83B
:100CE000060003208DF8050002208DF807006946F4
:100CF000034801F02DFF0421014801F0A7FF1CBDAE
:100D0000001002401CB50121172002F0BFF94FF47A
:100D10004050009000208DF8040003208DF805005D
:100D200001208DF807006946884801F011FF4FF453
:100D30000150009000208DF8040003208DF805007C
:100D400001208DF807006946814801F001FF182055
:100D5000009000208DF8040003208DF8050001208C
:100D60008DF8070069467B4801F0F2FE1CBD10B506
:100D7000044614B1012078490870774800780028AB
:100D800054D00821734801F045FFD8B110217148B3
:100D900001F040FFB0B14FF400516D4801F03AFF4F
:100DA00080B140216A4801F035FF58B14FF48051BD
:100DB000664801F02FFF28B14FF40051634801F05D
:100DC00029FF90BB0A2001F08DFD002062490870C8
:100DD0000821604801F01EFF08B9012010BD102154
:100DE0005C4801F017FF08B90220F7E74FF4005103
:100DF000574801F00FFF08B90320EFE7402154489E
:100E000001F008FF08B90420E8E74FF480514F488B
:100E100001F000FF08B90520E0E74FF400514B480E
:100E200001F0F8FE40BB0620D8E7FFE7082149485B
:100E300001F0F0FE01281FD11021464801F0EAFE22
:100E4000012819D14103424801F0E4FE012813D1E1
:100E500040213F4801F0DEFE01280DD101033B484F
:100E600001F0D8FE012807D14103384801F0D2FE35
:100E7000012801D1384908700020AFE710B50821DA
:100E8000344801F0C7FEE0B11021324801F0C2FE43
:100E9000B8B14FF400512E4801F0BCFE88B140219A
:100EA0002B4801F0B7FE60B14FF48051274801F0A4
:100EB000B1FE30B14FF40051244801F0ABFE0028E0
:100EC00035D10A2001F00EFD0821224801F0A2FED2
:100ED00010B901202149087010211E4801F09AFE26
:100EE00010B901201E4908704FF40051184801F054
:100EF00091FE10B901201B4908704021144801F0EF
:100F000089FE10B90120184908704FF480510F482C
:100F100001F080FE10B90120144908704FF400510F
:100F20000A4801F077FE10B901201149087010BD80
:100F300000200A4908700A4908700A4908700A49DD
:100F400008700A4908700A49087070470004024096
:100F500000080240001002408E000020880000209F
:100F6000890000208A0000208B0000208C000020D7
:100F70008D00002000B589B00121082002F0CFF8D3
:100F80000121084602F082F802220021E24801F025
:100F90006AFE02220121E04801F065FE032007906D
:100FA00002208DF8200003208DF8210001208DF80B
:100FB000220007A9D84801F0CBFD04A803F007FDE3
:100FC0000020ADF81000401E05900020ADF818007C
:100FD000ADF8120004A9D14803F0C5FC00231A465D
:100FE0000321CE4804F033FA01A804F0CAF80A201D
:100FF000ADF80C0001A9C94804F08CF80121C748DC
:1010000004F066F901221146C44804F04DF90021AC
:10101000C24803F0F1FC0121C04803F02DFD09B0E6
:1010200000BD00B589B00121084602F078F8012121
:10103000084602F02BF80121022002F027F80122D5
:101040000F21B54801F00FFE01220321B44801F041
:101050000AFE4FF40040079002208DF82000032084
:101060008DF8210000208DF8230007A9AA4801F07F
:101070006FFD0820079002208DF8200003208DF8D6
:10108000210000208DF8230007A9A54801F060FD8C
:101090001C208DF8000001208DF8010002208DF841
:1010A000020001208DF80300684601F060FC04A8EE
:1010B00003F08DFC0020ADF81000401E05900020CC
:1010C000ADF81800ADF8120004A94FF0804003F00D
:1010D0004AFC00231A4603214FF0804004F0B7F980
:1010E00001A804F04EF80A20ADF80C0001A9400751
:1010F00004F010F80121880704F0EAF801221146F3
:10110000900704F0D1F800214FF0804003F074FC08
:101110000121880703F0B0FC09B000BD00B589B01B
:101120000121080402F00CF80121102001F0AEFFAB
:10113000032205217B4801F096FD03220621794810
:1011400001F091FD6020079002208DF8200003201F
:101150008DF8210001208DF8220007A9714801F0C7
:10116000F7FC04A803F033FC0020ADF810004FF6A4
:10117000FF7005900020ADF81800ADF8120004A92A
:10118000694803F0F0FB02231A460321664804F085
:101190005EF901A803F0F5FF0620ADF80C0001A9E7
:1011A000614803F0B7FF01215F4804F091F80C217A
:1011B0005D4803F021FC01215B4803F05DFC09B0B0
:1011C00000BD00B589B00121084601F0B9FF012139
:1011D000102001F05BFF01220921524801F043FD7C
:1011E00001220B214F4801F03EFD4FF42060079093
:1011F00002208DF8200003208DF8210001208DF8B9
:10120000220000208DF8230007A9464801F0A0FC29
:1012100019208DF8000001208DF8010002208DF8C2
:10122000020001208DF80300684601F0A0FB3F4852
:1012300003F0ECFA04A803F0CAFB0020ADF810009C
:101240004FF47A7005900020ADF81800ADF8120048
:1012500004A9364803F087FB00231A4603213348CC
:1012600004F0F5F801A803F08CFF0A20ADF80C009B
:1012700001A92E4803F04EFF01212C4804F028F864
:1012800001221146294804F00FF80021274803F0F5
:10129000B3FB0121254803F0EFFB09B000BD014677
:1012A000012911D0022904D0052906D009290ED11F
:1012B00007E04FF08042506A0BE0184A2432106871
:1012C00007E0194A506A04E0184A506A01E0002019
:1012D00000BF00BF70471448008A1348008A20F0FE
:1012E00001001149088270474FF08040008A4FF09A
:1012F0008040008A20F001004FF080410882704752
:1013000006481030008805481030008820F00100A1
:10131000024910310880704700000240000C004074
:101320000004024000100240004001400000014063
:1013300010B50A461AB10123FE4C236002E00023D7
:10134000FC4C2360002115E00023FB4C236000F0DF
:10135000800323B10123F74C0834236003E000230A
:10136000F44C083423600123F34C23604306180E29
:101370004B1CD9B20829E7DB0123EE4C236010BDDA
:1013800030B500241CE004F1B001C8B20021FFF721
:10139000CFFF00210846FFF7CBFF00211020FFF709
:1013A000C7FF002508E0E54901EBC501085D012103
:1013B000FFF7BEFF681CC5B2802DF4DB601CC4B211
:1013C000082CE0DB30BD00B500218D20FFF7B0FF19
:1013D00000211420FFF7ACFF0021AF20FFF7A8FF8A
:1013E00000BD00B500218D20FFF7A2FF00211020D5
:1013F000FFF79EFF0021AE20FFF79AFF00BD30B53A
:1014000000240CE0002506E00020CC4901EBC501DA
:101410000855681CC5B2802DF6DB601CC4B2082CD0
:10142000F0DBFFF7ADFF30BDF0B5144600267F2896
:1014300001DC3F2900DDF0BD0B46CF1701EB5777EC
:10144000FF10C7F10707FAB2CF1701EB5777FF106C
:10145000A1EBC707FDB2C5F107070123BB40DEB210
:101460004CB1B64B03EBC0039B5C3343B34F07EB6C
:10147000C007BB5408E0B14B03EBC0039B5CB34314
:10148000AE4F07EBC007BB5400BFD4E72DE9F04FC8
:1014900080460C4615461E46A346A5F12000C5B25F
:1014A00000273EE00C2E07D105EB4500A44901EBD7
:1014B000800010F8079004E0A24800EB051010F837
:1014C00007904FF0000A26E009F0800028B121467D
:1014D0004046099AFFF7A8FF09E0099808B90120DA
:1014E00000E00020024621464046FFF79DFF4FEAFC
:1014F00049604FEA1069601CC4B2A4EB0B00B04213
:1015000005D15C4608F1010000F0FF0806E00AF191
:10151000010000F0FF0ABAF1080FD5DB00BF781C0C
:10152000C7B2B742BEDBBDE8F08F10B5024601205E
:1015300000E050430B00A1F10104E1B2F9D110BD6C
:101540002DE9FF4F81B0074691461E460E9D4FF094
:10155000000A002439E0301B401EC1B20A20FFF708
:10156000E4FFB9FBF0F00A21B0FBF1F201FB120835
:10157000BAF1000F16D1701EA04213DDB8F1000FB2
:101580000ED10120AB4605EBDB71491001FB047164
:101590000090C8B22B4620220299FFF777FF12E095
:1015A0004FF0010A0120AB4605EBDB71491001FB4E
:1015B00004710090C8B208F13001CAB22B460299FA
:1015C000FFF764FF00BF601CC4B2B442C3DB05B0C8
:1015D000BDE8F08F78B505460E46144617E07A2D23
:1015E00003DD002506F10C00C6B23A2E04DD002012
:1015F00005460646FFF703FF0120009022780C23E2
:1016000031462846FFF742FFA81DC5B2641C20786A
:101610000028E4D178BD1CB50121052001F036FD7C
:101620004FF48070009001208DF8040000208DF8A8
:10163000060003208DF8050001208DF8070069469B
:10164000414801F085FA4FF46070009069463F48C8
:1016500001F07EFA00203749091D0860642001F07E
:1016600041F901203A49C1F8A0020021AE20FFF75C
:101670005FFE0021D520FFF75BFE00215020FFF721
:1016800057FE0021A820FFF753FE00213F20FFF75F
:101690004FFE0021D320FFF74BFE00210846FFF745
:1016A00047FE00214020FFF743FE00218D20FFF779
:1016B0003FFE00211420FFF73BFE00212020FFF712
:1016C00037FE00210220FFF733FE0021A120FFF7A3
:1016D0002FFE0021C020FFF72BFE0021DA20FFF7AC
:1016E00027FE00211220FFF723FE00218120FFF7B3
:1016F0001FFE0021EF20FFF71BFE0021D920FFF77E
:1017000017FE0021F120FFF713FE0021DB20FFF779
:101710000FFE00213020FFF70BFE0021A420FFF771
:1017200007FE0021A620FFF703FE0021AF20FFF7F0
:10173000FFFD0FE09C024142A002404278010020E0
:10174000B68C00082A910008000002400008024000
:1017500000004142FFF753FE1CBD0000014608682F
:10176000704701464848814201D2002070474748EF
:10177000814201D20820F9E74548814201D2102078
:10178000F4E74448814201D21820EFE74248814201
:1017900001D22020EAE74148814201D22820E5E732
:1017A0003F48814201D23020E0E73E48814201D2E9
:1017B0003820DBE73C48814201D24020D6E73B4855
:1017C000814201D24820D1E73948814201D25020DC
:1017D000CCE75820CAE72DE9F04704460E461746E5
:1017E0004FF009080025A946B4F1006F02D304F0B8
:1017F000030008B1BDE8F08702F0FCFC002002F015
:10180000DCFC254604EB87092A48854215D211E005
:101810002846FFF7A3FF401C58B12846FFF7A1FF59
:101820008246022102F03AFD8046B8F1090F01D04C
:1018300002E02D1D4D45EBD300BFB8F1090F0CD1CF
:1018400008E02046316802F042FE092800D003E09B
:10185000241D361D4C45F4D300BF012002F0ADFC21
:1018600002F0D5FC00BFC5E730B503460C4615466F
:10187000002206E01846FFF771FF44F822001B1D06
:10188000521CAA42F6D330BD004000080080000878
:1018900000C0000800000108000002080000040861
:1018A000000006080000080800000A0800000C08F4
:1018B00000000E080000FF1F30B58BB005460C4637
:1018C0000121022001F02BFC0121022001F0DEFBAE
:1018D000022201218B4801F0C6F9022009908DF8FF
:1018E000280003208DF8290000208DF82A0001200F
:1018F0008DF82B0009A9834801F02AF90795ADF866
:1019000018400020ADF82000ADF81A0006A97E4866
:1019100003F029F86020ADF804000120ADF80600BE
:101920000020ADF8100001A9774803F09DF90821C7
:10193000754803F059FA0121734803F09DF800201F
:101940007149403108600BB030BD1CB50121032046
:1019500001F09CFB8020009001208DF80400002005
:101960008DF8060003208DF8050001208DF8070092
:101970006946664801F0ECF8012000908DF80400FB
:1019800000208DF8060003208DF8050001208DF859
:10199000070069465B4801F0DBF81CBD10B5FFF796
:1019A000D4FF002140F63300FFF786FF10BD30B5AD
:1019B0008BB005460C460121042001F0B0FB01214B
:1019C000084601F063FB02220D21514801F04BF95A
:1019D0004FF40050099002208DF8280003208DF864
:1019E000290000208DF82A0001208DF82B0009A97C
:1019F000474801F0ADF80795ADF818400020ADF864
:101A00002000ADF81A0006A9424802F0ACFF6020A1
:101A1000ADF804000120ADF806000020ADF810007C
:101A200001A93C4803F06DF808213A4803F0C6F9D3
:101A30000121384803F020F8002036493831086089
:101A40000BB030BD1CB50121082001F01FFB4FF485
:101A50004040009001208DF8040000208DF8060021
:101A600003208DF8050001208DF8070069462848FD
:101A700001F06EF81CBD10B5FFF7E4FF002141F244
:101A80006700FFF794FF10BD10B5FFF7F4FFFFF7F5
:101A900085FF10BD10B5002A01DA53429AB2012821
:101AA00016D151B100231C4C236001231B4CC4F8F8
:101AB000BC32184B38331A6022E00123164C2360E5
:101AC0000023164CC4F8BC32124B38331A6017E0AE
:101AD000022815D151B10023114C23600123114C70
:101AE000C4F88032084B40331A6009E001230C4CE3
:101AF000236000230B4CC4F88032034B40331A6040
:101B000010BD00000004024000040040000002403C
:101B1000000C024000080040B8824142008041426F
:101B20009C024042008040428A480021016081803E
:101B300070478848808840F2E731884205DA854856
:101B40008088401C8349888026E000208149888065
:101B50000846C0783B2804DA0846C078401CC870A4
:101B60001AE000207B49C870084680783B2804DAD8
:101B700008468078401C88700EE000207549887007
:101B800008460088172804DA08460088401C0880A8
:101B900002E000206F490880704710B5044604EB4E
:101BA00044006D4901EB800090ED000A04EB440015
:101BB00001EB800080ED010A00F014FE00EE100A37
:101BC000B8EE400ADFED650A80EE201A04EB44000F
:101BD000614901EB800080ED001A04EB440001EB49
:101BE000800090ED000A04EB440001EB8000D0ED92
:101BF000010A30EE600A04EB440001EB800080ED46
:101C0000020A04EB440001EB800090ED020A10BDD3
:101C100010B5002404E02046FFF7BFFF601CC4B2EB
:101C2000052CF8DB10BD7FB505460C4601210420CC
:101C300001F075FA0295ADF804400020ADF80600F9
:101C4000ADF80C0001A9464802F08DFE01221146B4
:101C5000434803F029FB0121414802F00DFF1E20FB
:101C60008DF8000001208DF8010003208DF802009E
:101C700001208DF80300684600F079FE7FBD7FB536
:101C800005460C460121102001F049FA0295ADF8F5
:101C900004400020ADF80600ADF80C0001A9314861
:101CA00002F061FE012211462E4803F0FDFA0121E7
:101CB0002C4802F0E1FE36208DF8000001208DF85E
:101CC000010003208DF8020001208DF80300684612
:101CD00000F04DFE7FBD7FB505460C46012120205A
:101CE00001F01DFA0295ADF804400020ADF80600A1
:101CF000ADF80C0001A91C4802F035FE0122114686
:101D0000194803F0D1FA0121174802F0B5FE372037
:101D10008DF8000001208DF8010003208DF80200ED
:101D200001208DF80300684600F021FE7FBD10B54C
:101D300001210D4803F0CFFA58B10C48006808B9EA
:101D4000012000E00020094908600121064803F055
:101D5000D3FA10BDA00000207805002000247449AB
:101D6000000800400010004000140040AC824142D6
:101D700030B58BB004460D460121880401F0E0F92E
:101D80000121022001F082F903220921AE4800F06E
:101D90006AFF4FF40070099002208DF8280003209C
:101DA0008DF8290000208DF82A0001208DF82B00E5
:101DB00009A9A54800F0CCFEA8B2ADF81800002093
:101DC000ADF81A000794ADF8200006A99F4802F06C
:101DD000CAFD6020ADF800000120ADF8020000202F
:101DE000ADF80C006946994802F052FE0821974868
:101DF00002F0DBFF0121954802F020FE012193480B
:101E000002F03AFE01220221904803F04DFA02212D
:101E10008E4803F071FA1A208DF8140000208DF816
:101E2000150001208DF816008DF8170005A800F0A8
:101E30009EFD0BB030BD30B58BB004460D46012180
:101E4000480401F07DF90121022001F01FF903226D
:101E500008217D4800F007FF4FF4807009900220B0
:101E60008DF8280003208DF8290000208DF82A0025
:101E700001208DF82B0009A9734800F069FEA8B273
:101E8000ADF818000020ADF81A000794ADF8200056
:101E900006A96F4802F067FD6020ADF80000012040
:101EA000ADF802000020ADF80C006946684802F069
:101EB000EFFD0821664802F078FF0121644802F036
:101EC000BDFD0121624802F0D7FD012202216048D8
:101ED00003F0EAF902215E4803F00EFA19208DF8AA
:101EE000140000208DF8150001208DF816008DF8E3
:101EF000170005A800F03BFD0BB030BD1CB5532109
:101F000040F2CF70FFF797FF532140F2CF70FFF7F9
:101F10002FFF0121102001F0B9F83020009001209E
:101F20008DF8040000208DF8060003208DF80500D0
:101F300001208DF807006946464800F009FE01219E
:101F4000102001F0A3F81CBD10B50221404803F099
:101F5000C2F9012817D102213D4803F0CDF93E48CE
:101F60000088401C3C490880084600883B49098895
:101F7000884208DB0021364802F0E3FE00203649A3
:101F800008803649088010BD10B502212F4803F0A3
:101F9000A2F9012817D102212C4803F0ADF93048ED
:101FA0000088401C2E490880084600882D49098871
:101FB000884208DB0021254802F0C3FE00202849A2
:101FC00008802849088010BD10B504460020234928
:101FD000088000211E4802F0B4FE00201E4908803F
:101FE000002C05DA2049086060421C49088004E0A2
:101FF00001201D49086019490C804FF47A7114487A
:1020000002F09FFE10BD10B5044600210F4802F0FB
:1020100098FE00201249088012490880002C06DA38
:102020001149091D086060420E49088005E0012041
:102030000D49091D08600B490C804FF47A71034863
:1020400002F07FFE10BD0000000402400048014085
:102050000044014000100240A6000020AA00002019
:10206000A8000020AC000020940242421FB50020CE
:102070008DF80A008DF80B0001208DF80C004FF44C
:10208000A150ADF800000020ADF802004FF6FF703F
:10209000ADF80400ADF806000020ADF808000120FE
:1020A0008DF80D00684601F012FC0E208DF80A0034
:1020B00000208DF80B0001208DF80C004FF4A1508A
:1020C000ADF800000020ADF802000E208DF80A00E7
:1020D00000208DF80B0001208DF80C004FF4A1506A
:1020E000ADF800000020ADF802004FF6FF70ADF82B
:1020F0000400ADF806000020ADF8080001208DF8BE
:102100000D00684601F0E3FB1FBD0EB500208DF801
:1021100006008DF807008DF8080001208DF80900F1
:1021200000208DF80A008DF80B008DF802008DF864
:10213000030008208DF8040003208DF80500ADF899
:1021400000006946AE4801F038FB00208DF806001B
:102150008DF807008DF8080001208DF80900002097
:102160008DF80A008DF80B008DF802008DF8030041
:1021700008208DF8040003208DF80500ADF800005C
:102180006946A04801F019FB0EBD08B501220221E5
:102190009B4801F09BFE14208DF8000001208DF873
:1021A000010000208DF8020001208DF80300684630
:1021B00000F0DDFB01220221924801F087FE402061
:1021C0008DF8000002208DF8010001208DF802003A
:1021D0008DF80300684600F0CAFB08BD1CB501215C
:1021E000084600F053FF0121480600F098FF4FF425
:1021F000C050009002208DF8040000208DF80600E9
:1022000003208DF8050001208DF8070069467E48FF
:1022100000F09EFC09220B217B4800F024FD0922DE
:102220000C21794800F01FFD0121022000F02EFF53
:102230000121880600F073FF6020009002208DF8D5
:10224000040000208DF8060003208DF80500012011
:102250008DF8070069466D4800F07AFC09220521D7
:102260006A4800F000FD09220621684800F0FBFCE6
:102270001CBD10B5FFF7B2FFFFF787FFFFF745FF63
:10228000FFF7F4FE10BD2DE9F04106460F4600248D
:102290005F48076000205E49087248720820887213
:1022A00000BF05E0315D5A480B300155601C84B217
:1022B000082CF7DB5649524801F0F8FB054600248C
:1022C00001E0601C84B229464D4801F087FC18B932
:1022D00040F6FF708442F4DB40F6FF70844202DB7C
:1022E0000120BDE8F0810020FBE730B585B0054650
:1022F0000021434801F052FD10B9002005B030BD67
:102300006A4600213E4801F0C6FC002405E00DF1BC
:102310000B00005D2855601C84B29DF80A00A042A5
:10232000F5DC9DF80A00E9E700B585B001203949E0
:1023300008706A460021324801F0ADFC05B000BDCE
:102340002DE9F04106460F46002431480760002081
:102350002F49087248720820887200BF05E0315D7D
:102360002B480B300155601C84B2082CF7DB284940
:10237000244801F09BFB0546002401E0601C84B268
:102380002946204801F02AFC18B940F6FF70844223
:10239000F4DB40F6FF70844202DB0020BDE8F081F0
:1023A0000120FBE730B585B005460021154801F056
:1023B000F5FC10B9002005B030BD6A460021114877
:1023C00001F069FC002405E00DF10B00005D2855CB
:1023D000601C84B29DF80A00A042F5DC9DF80A005A
:1023E000E9E700B585B001200B490860094908708C
:1023F0006A460021034801F04EFC05B000BD000014
:1024000000640040006800400000024000040240F8
:10241000B405002038000020880242421CB501218A
:10242000082000F033FE5520009001208DF80400B4
:1024300000208DF8060003208DF8050001208DF89E
:1024400007006946314800F083FB0121042000F0B9
:102450001DFE4FF44060009001208DF80400002024
:102460008DF8060003208DF8050001208DF8070087
:102470006946274800F06CFB5521244800F0E4FB36
:102480004FF44061224800F0DFFB1CBD1CB5012168
:10249000082000F0FBFD0121042000F0F7FD0A20D8
:1024A000009000208DF8040003208DF80500012025
:1024B0008DF807006946154800F04AFB4FF480503C
:1024C000009000208DF8040003208DF80500012005
:1024D0008DF8070069460E4800F03AFB1CBD1CB59C
:1024E0000121102000F0D2FD4FF440400090002068
:1024F0008DF8040003208DF8050001208DF80700F9
:102500006946044800F024FB1CBD0000000C02409A
:1025100000080240001002400FB438B505A8009032
:102520005948009A049904F0DDFC002000905648B8
:1025300004F01EFE85B200240DE000BF4021534888
:1025400001F0C2F80028F9D04F48015D4F4801F072
:102550000BF8601C84B2AC42EFDB38BC5DF814FBB6
:1025600010B588B004460121022000F08FFD012142
:10257000880400F0D4FD07220A21454800F073FBCF
:1025800007220B21424800F06EFB4FF4406006909A
:1025900002208DF81C008DF81D0000208DF81E0013
:1025A00001208DF81F0006A9394800F0D1FA0294E5
:1025B0000020ADF80C00ADF80E00ADF81000ADF83D
:1025C00014000C20ADF8120002A9304800F019FFE9
:1025D00001212E4800F09DFF40212C4801F081F898
:1025E000012240F22551294801F049F827208DF8B1
:1025F000040000208DF8050002208DF8060001205F
:102600008DF8070001A800F0B2F908B010BD10B5B0
:1026100040F225511D4801F06DF810B31B4800F041
:10262000A7FFC4B21B48008800F40040C8B919488D
:10263000008800F4804060B10A2C03D000201549C6
:10264000088020E01348008840F4004011490880C9
:1026500019E00D2C06D10F48008840F480400D4948
:10266000088010E00B480088C0F30D000A490C54A4
:1026700008480088401C0749088008460088C72889
:1026800001DD0020088010BDC80500200048004082
:1026900000040240AE00002090060020014600BF6A
:1026A000704700BF304A128802F04002002AF9D079
:1026B000C2B22D4B9A80704710B588B004460121F4
:1026C000084600F0E3FC0121102000F039FD07224C
:1026D0000921264800F0C7FA07220A21234800F002
:1026E000C2FA4FF4C060069002208DF81C008DF8ED
:1026F0001D0000208DF81E0001208DF81F0006A986
:102700001A4800F025FA02940020ADF80C00ADF84C
:102710000E00ADF81000ADF814000C20ADF812005A
:1027200002A9114800F06DFE01210F4800F0F1FEF2
:1027300040210D4800F0D5FF012240F225510A4802
:1027400000F09DFF25208DF8040000208DF8050085
:1027500002208DF8060001208DF8070001A800F086
:1027600006F908B010BD0000001001400000024052
:102770007FB5684600F0B9FB4FF47A710198B0FB61
:10278000F1F4E4082146481EB0F1807F00D31BE03D
:10279000481E4FF0E022506150170F22002807DA40
:1027A00013071E0E1B4B00F00F052D1F5E5503E097
:1027B00013071D0E184B1D5400BF00204FF0E022E0
:1027C00090610720106100BF6FF0040000F01CF959
:1027D0007FBD10B511480068401C10490860FFF724
:1027E000A8F910BD0D4A11684FF0E02252694FF070
:1027F000E0239B69D21A4FF47A735A434FF0E023D7
:102800005B69B2FBF3F201EB4103C3EBC11302EBD3
:10281000C300704718ED00E000E400E0BC000020B9
:1028200010B504466FF0040000F0EEF8E11704EB79
:102830005171C1F3C701394A11701046007800EB9D
:102840004001C1EBC0104FF6FF7101EAC0003449EE
:10285000088010BD0146314A12784A434FF0E02308
:102860005A6100229A611A46126942F001021A6105
:1028700000BF4FF0E022106900F001021AB100F42D
:102880008032002AF5D04FF0E022126922F00102D6
:102890004FF0E0231A6100229A6170470146204AF6
:1028A00012884A434FF0E0235A6100229A611A4687
:1028B000126942F001021A6100BF4FF0E022106974
:1028C00000F001021AB100F48032002AF5D04FF076
:1028D000E022126922F001024FF0E0231A61002287
:1028E0009A61704770B504464FF4077094FBF0F09E
:1028F000C6B24FF4077094FBF0F100FB114085B2B3
:1029000005E04FF40770FFF7C9FF701EC6B2002E36
:10291000F7D115B12846FFF7C1FF70BDC0000020F8
:10292000C20000200948804709480047FEE7FEE74B
:10293000FEE7FEE7FEE7FEE7FEE7FEE7FEE7FEE76F
:1029400004480549054A064B704700001D0500086C
:102950008901000898080020980E0020980A00209D
:10296000980A002032490143324A1160704770B51D
:10297000002100230F22C4781CB32E4C246804F4D9
:10298000E064C4F5E064C4F30721C1F10404E3B2D8
:102990000A4144789C40E1B28478144021430C07FA
:1029A000210E254C05786155047804F01F0501249B
:1029B000AC4005786D11AD0005F1E025C5F800418A
:1029C00009E0047804F01F050124AC401B4D067893
:1029D000761145F8264070BD194A0A400243154B4E
:1029E0001B1F1A60704739B1124A121D1268024348
:1029F000104B1B1D1A6006E00E4A121D126882431E
:102A00000C4B1B1D1A607047042808D14FF0E021C1
:102A1000096941F004014FF0E022116107E04FF035
:102A2000E021096921F004014FF0E02211617047B3
:102A30000000FA050CED00E000E400E080E100E0B9
:102A400080FFFF1F10B504469848844208D1012139
:102A5000084600F086FB0021012000F082FB76E0B2
:102A60009348844208D10121022000F07AFB002122
:102A7000022000F076FB6AE08E48844208D10121F2
:102A8000042000F06EFB0021042000F06AFB5EE0F1
:102A90008948844208D10121082000F062FB00210E
:102AA000082000F05EFB52E08448844208D10121F6
:102AB000102000F056FB0021102000F052FB46E0F1
:102AC0007F48844208D10121202000F04AFB0021E8
:102AD000202000F046FB3AE07A48844208D10121E8
:102AE000402000F03EFB0021402000F03AFB2EE0A9
:102AF0007548844208D10121802000F032FB00217A
:102B0000802000F02EFB22E07048844208D1012191
:102B1000801500F026FB0021A01500F022FB16E036
:102B20006B48844208D10121401500F01AFB0021B6
:102B3000601500F016FB0AE06648844207D10121C7
:102B4000001500F00EFB0021201500F00AFB10BD5F
:102B5000F0B50A4600210023002400BF3DE0012516
:102B600005FA01F3156805EA03049C4234D10568AF
:102B70004F000326BE40B543056015794E00B540B1
:102B80000668354305601579012D02D01579022DAF
:102B900016D185684F000326BE40B5438560557940
:102BA0004E00B540866835438560456801268E40F5
:102BB000B5434560456896798E40B6B23543456069
:102BC000C5684F000326BE40B543C560D5794E00A9
:102BD000B540C6683543C560491C1029BFD3F0BD58
:102BE0004FF6FF7101600021017141718171C17166
:102BF000704708B54FF480320092009A0A43009261
:102C0000009AC261C161009AC261C2690092C26940
:102C1000009208BD0246002013690B400BB1012051
:102C200000E0002070470146086980B27047024604
:102C3000002053690B400BB1012000E000207047D9
:102C40000146486980B270470183704741837047ED
:102C50000AB1018300E041837047416170474269D6
:102C60004A4042617047F0B5002300244D07ED0E45
:102C700002FA05F3CE1000F1200555F826504E0754
:102C8000F70E0F26BE40B543CF1000F1200646F8E0
:102C90002750CE1000F1200555F8265045EA0304D0
:102CA000CE1000F1200545F82640F0BD000002409E
:102CB0000004024000080240000C024000100240E4
:102CC0000014024000180240001C02400020024094
:102CD0000024024000280240F948006840F001004A
:102CE000F74908600020F64908310860F448006898
:102CF000F4490840F2490860F348091D0860F348A8
:102D0000EF4984310860F0481038091D0860EC482C
:102D1000006820F48020EA4908600020E8490C316E
:102D20000860E7498C31086070470021E44A921C32
:102D3000117011460870704710B50146002200233B
:102D400000204A11012A02D1DD4C236808E0022A42
:102D500003D1DB4C7034236802E0D94C743423680F
:102D600001F01F02012494401C400CB1012000E03E
:102D7000002010BD38B5002000900024002500BFC1
:102D80003120FFF7D9FF05460098401C00900098BD
:102D9000B0F5A04F01D0002DF2D03120FFF7CCFFCD
:102DA00008B1012400E00024204638BD014600207F
:102DB000C34A106820F0F80040EAC1001060704774
:102DC000C349086070470021BD4A7032117011700C
:102DD000012802D004280AD104E00121B84A703247
:102DE000117005E00521B64A7032117000E000BF95
:102DF00000BF7047B7490860704770B5049C41EA4E
:102E000082150126C6EB530645EA0645054345EA09
:102E10000465AB4E361D356070BDAD490866704720
:102E2000820142EA0172A64B84331A607047A849B6
:102E30008866704710B5830143EA016343EA027371
:102E40009F4C8834236010BDA14908677047A04992
:102E5000C864704702460020994B0833186820F078
:102E6000EC6042EA01031843954B08331860704741
:102E700002460020924B0833186820F0784042EA5E
:102E8000010318438E4B0833186070470146002039
:102E90008B4A0832106820F0030008431060704726
:102EA00087480830006800F00C0070470146002099
:102EB000834A0832106820F0F00008431060704721
:102EC000014600207E4A0832106820F4E050084392
:102ED0001060704701460020794A0832106820F4DB
:102EE000604040EAC10010607047F0B50021002248
:102EF0000024022500260223714F08373F6807F09F
:102F00000C0121B1042905D0082937D105E0724F01
:102F1000076036E0714F076033E0694F3F1D3F683F
:102F2000C7F38056664F3F1D3F6807F03F036EB101
:102F30006A4FB7FBF3F7DFF888C10CF1040CDCF83B
:102F400000C0CCF3881C07FB0CF40CE0624FB7FB0D
:102F5000F3F7DFF86CC10CF1040CDCF800C0CCF323
:102F6000881C07FB0CF4564F3F1D3F68C7F3014711
:102F70007F1C7D00B4FBF5F7076002E0564F076049
:102F800000BF00BF4E4F08373F6807F0F001090946
:102F9000534F7A5C0768D7404760494F08373F680E
:102FA00007F4E051890A4E4F7A5C4768D740876042
:102FB000434F08373F6807F46041490B484F7A5C3C
:102FC0004768D740C760F0BD002100F44072B2F5F9
:102FD000407F0AD13A4A0832116821F4F811414A77
:102FE00002401143364A08321160354A7032126885
:102FF000C0F30B031A43324B70331A6070473549E4
:103000004439086070473349403908607047364991
:103010000860704701460020294A8C32106820F071
:103020001F004A1E1043264A8C321060704701462A
:103030000020234A8C32106820F4F8504A1E40EADF
:1030400002201F4A8C3210607047014600201C4A43
:103050008C32106820F4401008431060704701461D
:103060000020174A8C32106820F44000084310609A
:10307000704701460020124A8C32106820F440301C
:1030800008431060704719490860704739B10C4A0D
:103090003032126802430A4B30331A6006E0084AA5
:1030A000303212688243064B30331A607047F9B1F0
:1030B000034A343212680243014B34331A601CE075
:1030C00000380240FFFFF6EA1030002400300020F4
:1030D00000004742800E47420024F40000127A00AC
:1030E000C4000020FFFCFF0F5C014742E011474293
:1030F0008F4A126882438E4B1A60704739B18C4AEE
:10310000121D126802438A4B1B1D1A6006E0884A92
:10311000121D12688243864B1B1D1A60704739B11D
:10312000834A0C3212680243814B0C331A6006E06A
:103130007F4A0C32126882437D4B0C331A60704711
:1031400039B17B4A103212680243794B10331A604E
:1031500006E0774A103212688243754B10331A60CA
:10316000704739B1724A243A12680243704B243BCB
:103170001A6006E06E4A243A126882436C4B243B84
:103180001A60704739B16A4A203A12680243684BA4
:10319000203B1A6006E0664A203A12688243644B7C
:1031A000203B1A60704739B1614A1C3A12680243E9
:1031B0005F4B1C3B1A6006E05D4A1C3A1268824372
:1031C0005B4B1C3B1A60704739B1594A143A12687C
:1031D0000243574B143B1A6006E0554A143A1268F2
:1031E0008243534B143B1A60704739B1504A103A2E
:1031F000126802434E4B103B1A6006E04C4A103AEC
:10320000126882434A4B103B1A60704739B1484AF2
:103210001C3212680243464B1C331A6006E0444AD3
:103220001C3212688243424B1C331A60704739B11A
:103230003F4A2032126802433D4B20331A6006E0B9
:103240003B4A203212688243394B20331A60704760
:1032500039B1374A243212680243354B24331A609D
:1032600006E0334A243212688243314B24331A6019
:10327000704739B12E4A2C32126802432C4B2C3342
:103280001A6006E02A4A2C3212688243284B2C33FB
:103290001A60704739B1264A303212680243244B13
:1032A00030331A6006E0224A303212688243204BE3
:1032B00030331A607047012808D11D493C31096834
:1032C00041F008011A4A3C32116007E018493C31CC
:1032D000096821F00801164A3C321160704739B183
:1032E000134A273A12780243114B273B1A7006E023
:1032F0000F4A273A127882430D4B273B1A707047CA
:103300000B484030006840F0807009494031086047
:10331000704701460020064A283A12680A400AB15E
:10332000012000E0002070470149263908707047ED
:103330003438024010B50446FA48844208D10121CD
:103340001020FFF752FF00211020FFF74EFF57E03B
:10335000F548844209D101214804FFF735FF0021D7
:103360004FF40030FFF730FF4AE0F048844209D1C3
:1033700001218804FFF728FF00214FF48020FFF788
:1033800023FF3DE0EA48844209D10121C804FFF748
:103390001BFF00214FF40020FFF716FF30E0E54847
:1033A000844209D101210805FFF70EFF00214FF4E7
:1033B0008010FFF709FF23E0DF48844208D1012194
:1033C0002020FFF712FF00212020FFF70EFF17E05B
:1033D000DA48844209D101218807FFF7F5FE002170
:1033E0004FF08040FFF7F0FE0AE0D548844207D155
:1033F00001214005FFF7E8FE00216005FFF7E4FE2C
:1034000010BD2DE9FF4705460E460024A14600BF2A
:10341000A046B08900B100BF2C8A24F44054F08843
:1034200004432C82AC8941F20C608443B08831891A
:103430000843718908430443AC81AC8A24F4407486
:10344000B0890443AC826846FFF74FFDB54885421A
:1034500002D0B948854202D1DDF80C9001E0DDF8D8
:103460000890A88900F4004040B109EBC90000EBC6
:10347000091031684900B0FBF1F707E009EBC9001A
:1034800000EB091031688900B0FBF1F76420B7FB4D
:10349000F0F004012009642101FB1078A88900F4F0
:1034A000004040B1322000EBC800B0FBF1F000F06A
:1034B0000700044308E0322000EB08106421B0FB51
:1034C000F1F000F00F0004432C81BDE8FF874FF4BA
:1034D0001651016000218180C18001810C21418150
:1034E00000218181704710B502460020108A20F427
:1034F00070600B884C8823438C882343CC882343FB
:103500001843108210BD0021018041808180C1805C
:10351000704721B1828942F40052828104E082899D
:103520004DF6FF731A4082817047028B02F47F428E
:103530000283028B0A430283704721B1828942F4DD
:103540000042828103E08289C2F30E0282817047C9
:1035500021B1828A42F40062828204E0828A4FF2C0
:10356000FF731A4082827047C1F30802828070475D
:1035700001468888C0F308007047028A4FF6F0734E
:103580001A400282028A0A430282704721B182896C
:1035900042F00202828104E082894FF6FD731A40F4
:1035A0008281704782894FF2FF731A40828182893B
:1035B0000A4382817047028A4FF6DF731A40028203
:1035C000028A0A430282704721B1028A42F4804291
:1035D000028204E0028A4BF6FF731A4002827047AF
:1035E000818941F001018181704721B1828A42F0D5
:1035F0000802828204E0828A4FF6F7731A408282C0
:103600007047028BD2B20283028B42EA012202830C
:10361000704721B1828A42F02002828204E0828ACD
:103620004FF6DF731A408282704721B1828A42F0DE
:103630001002828204E0828A4FF6EF731A4082827F
:103640007047828A4FF6FB731A408282828A0A434D
:103650008282704721B1828A42F00202828204E0B3
:10366000828A4FF6FD731A40828270471AB1838AAC
:103670000B43838202E0838A8B4383827047F0B5D9
:103680000346002400260025002040F66A17B942B0
:1036900000D100BF1846C1F3421401F01F060127F4
:1036A00007FA06F5012C01D10C3004E0022C01D1FF
:1036B000103000E014301AB107682F43076002E0B1
:1036C0000768AF430760F0BD02460020B1F5007FF8
:1036D00000D100BF13880B400BB1012000E0002097
:1036E000704701F40072B2F5007F00D100BFCA43F9
:1036F0000280704770B50246002400230025002098
:1037000040F66A16B14200D100BFC1F3421501F084
:103710001F03012606FA03F3012D13D196893340C6
:1037200017E0000000100140004400400048004045
:10373000004C004000500040001401400078004060
:10374000007C0040022D02D1168A334001E0968AA7
:1037500033400C12012606FA04F41688344013B1E3
:103760000CB1012000E0002070BD10B50022002344
:1037700040F66A14A14200D100BF0A12012494400D
:10378000A3B2DC43048010BD10B50446FE48844259
:1037900009D101214806FFF717FD00214FF0007005
:1037A000FFF712FD08E001218806FFF70DFD00215B
:1037B0004FF08060FFF708FD10BD30B502460020D5
:1037C0000023146824F002041460146844F0010417
:1037D000146000E05B1C546804F001041CB94FF64F
:1037E000FF74A342F6D1546804F001040CB9002020
:1037F0006CE08C79012C04D1146844F080041460CE
:1038000003E0146824F080041460CC79012C04D106
:10381000146844F04004146003E0146824F0400489
:1038200014600C7A012C04D1146844F02004146054
:1038300003E0146824F0200414604C7A012C04D1B5
:10384000146844F01004146003E0146824F01004B9
:1038500014608C7A012C04D1146844F008041460BC
:1038600003E0146824F008041460CC7A012C04D11D
:10387000146844F00404146003E0146824F00404A1
:1038800014608C78A407CD7844EA05640D7944EA85
:1038900005444D7944EA05540D886D1E2C43D461CE
:1038A000146824F001041460002300E05B1C5468D9
:1038B00004F001041CB14FF6FF74A342F6D1546822
:1038C00004F001040CB1002000E0012030BD10B56F
:1038D0000021837A012202FA03F1AC4A126842F015
:1038E0000102AA4B1A60A94A1C3212688A43A74BEC
:1038F0001C331A60027BCAB9A44A0C3212688A438C
:10390000A24B0C331A604288C38842EA03439F4AA1
:103910004032847A42F834300288838842EA034392
:103920009A4A4032847A02EBC4025360027B012A35
:1039300019D1964A0C3212680A43944B0C331A6020
:103940004288038842EA0343904A4032847A42F82C
:103950003430C288838842EA03438C4A4032847AF6
:1039600002EBC4025360C27A3AB9884A121D126847
:103970008A43864B1B1D1A6006E0844A121D12689A
:103980000A43824B1B1D1A60028932B97F4A1432E6
:1039900012688A437D4B14331A600289012A06D1CA
:1039A0007A4A143212680A43784B14331A60427B05
:1039B000012A06D1754A1C3212680A43734B1C3324
:1039C0001A60724A126822F00102704B1A6010BD30
:1039D00000218171C171017241728172C172817065
:1039E000C1700321017102214171012101807047E1
:1039F0006649096841F00101644A1160114609688D
:103A000043F60E729143614A11601146096841EA1A
:103A1000002111601146096821F001011160704711
:103A200021B1026842F48032026003E0026822F4AD
:103A3000803202607047E1B1026842F080020260A9
:103A40004FF4C272125842F480734FF4C272135092
:103A50004FF4CA72125842F480734FF4CA72135072
:103A60004FF4D272125842F480734FF4D272135052
:103A70001BE0026822F0800202604FF4C27212580A
:103A800022F480734FF4C27213504FF4CA7212586A
:103A900022F480734FF4CA7213504FF4D27212584A
:103AA00022F480734FF4D2721350704710B502465F
:103AB0000020936803F08063B3F1806F00D110E0C1
:103AC000936803F00063B3F1006F01D1012008E0B7
:103AD000936803F08053B3F1805F01D1022000E0CE
:103AE0000420042879D002F5C07303EB00131B688F
:103AF00003F0010402F5C07303EB00131C600B7AA2
:103B00007BB94B7A0C8843EA445302F5C07404EB4A
:103B100000142468234302F5C07404EB00142360EE
:103B200010E00B7A4C6843EAC4034C7A234302F555
:103B3000C07404EB00142468234302F5C07404EB42
:103B4000001423608B7A03F00F038B7202F5C073AD
:103B500003EB00135B6823F00F0402F5C07303EB63
:103B600000135C6002F5C07303EB00135B688C7A92
:103B7000234302F5C07404EB001463608B7B1C06C6
:103B80004B7B44EA034403E00064004000660040CD
:103B90000B7B44EA0323CC7A234302F5C07404EB85
:103BA0000014A3608B7C1C064B7C44EA03440B7C12
:103BB00044EA0323CC7B234302F5C07404EB0014D6
:103BC000E36002F5C07303EB00131B6843F00104CC
:103BD00002F5C07303EB00131C6010BD10B5024664
:103BE000002321B1012907D002290FD109E09068F3
:103BF000F94C00EA04030BE09068F84C00EA040377
:103C000006E09068F64C00EA040301E0002300BFE0
:103C100000BFF44C181BA34216D007DC83B16FF031
:103C20008060184470B1022818D111E0B0F5007F0F
:103C300010D0ED4C204448B1B0F5003F0ED10BE060
:103C400002230DE000230BE0002309E0002307E03E
:103C5000012305E0012303E0012301E0002300BF6D
:103C600000BFD8B210BD21B1012907D002290FD160
:103C700009E0826842F0800282600AE0826842F4D1
:103C80000042826005E0826842F40002826000E047
:103C900000BF00BF704710B500F5D87303EB0113E8
:103CA0001B6803F004031372137A53B900F5D87339
:103CB00003EB01131B6840F2FF7404EA53531360D3
:103CC00009E000F5D87303EB01131B686FF0604443
:103CD00004EAD303536000F5D87303EB01131B68A8
:103CE00003F00203537200F5D87303EB01135B6812
:103CF00003F00F03937200F5D87303EB01135B68B5
:103D00001B0AD37400F5D87303EB01139B68D372BD
:103D100000F5D87303EB01139B681C0A147300F5BC
:103D2000D87303EB01139B681C0C547300F5D87314
:103D300003EB01139B681B0E937300F5D87303EB21
:103D40000113DB68D37300F5D87303EB0113DB6851
:103D50001C0A147400F5D87303EB0113DB681C0C08
:103D6000547400F5D87303EB0113DB681B0E9374D6
:103D700021B9C36843F02003C36003E0036943F043
:103D80002003036110BD21B9C26842F02002C26065
:103D900003E0026942F020020261704702460020FF
:103DA00019B9D36803F0030006E0012903D11369B0
:103DB00003F0030000E00020704710B502460B46F8
:103DC00000204FF6FF71BBB9146824F0020444F0E0
:103DD0000104146000E0491E546804F00304012C3F
:103DE00001D00029F7D1546804F00304012C01D05C
:103DF000002032E0012030E0012B13D1146824F0C0
:103E00000304146000E0491E546804F003040CB17C
:103E10000029F8D1546804F003040CB100201CE020
:103E200001201AE0022B17D1146824F0010444F099
:103E30000204146000E0491E546804F00304022CDC
:103E400001D00029F7D1546804F00304022C01D0FA
:103E5000002002E0012000E0002010BD014600200B
:103E60000A6822F0010242F002020A604A6802F087
:103E70000302022A00D10120704701464FF6FF726B
:103E800000200B6823F002030B6000E0521E4B6819
:103E900003F00203022B01D1002AF7D14B6803F093
:103EA0000203022B00D001207047014600208A69DE
:103EB00002F070007047014600208A69100E7047BA
:103EC000014600208A69C2F3074070471AB143696E
:103ED0000B43436102E043698B434361704710B574
:103EE0000246002001F4700343B19369C1F3130447
:103EF00023400BB101202DE000202BE001F0807366
:103F000043B15368C1F3130423400BB1012021E0F6
:103F100000201FE001F0006343B19368C1F3130474
:103F200023400BB1012015E0002013E001F00073E5
:103F300043B1D368C1F3130423400BB1012009E05E
:103F4000002007E01369C1F3130423400BB10120E3
:103F500000E0002010BD0022244B994202D1002332
:103F6000836111E0C1F3130201F000730BB1C26071
:103F70000AE001F080630BB1026105E001F000632B
:103F80000BB1826000E0426070470246002002EA06
:103F900001030BB1012000E00020704770B504461A
:103FA0000D46002660692840002872D0B5F5807F54
:103FB00069D01DDC082D42D006DC012D2DD0022D4C
:103FC00031D0042D7FD134E0102D3ED0202D42D0B1
:103FD000402D78D145E000000300000400030008F4
:103FE00000000310000100080001FFF77000F0302E
:103FF000B5F5004F61D009DCB5F5007F4AD0B5F5C5
:10400000806F4DD0B5F5006F5DD150E0B5F5803FC4
:104010002DD0B5F5003F56D12FE0A0685549FFF7E8
:10402000B4FF064651E0E0680321FFF7AEFF064605
:104030004BE0E0680821FFF7A8FF064645E0E0688E
:104040001021FFF7A2FF06463FE020690321FFF79A
:104050009CFF064639E020690821FFF796FF0646D7
:1040600033E020691021FFF790FF06462DE06068DD
:104070000821FFF78AFF064627E060681021FFF756
:1040800084FF064621E0A0690121FFF77EFF064676
:104090001BE01BE0A0690221FFF777FF064614E052
:1040A000A0690421FFF771FF06460EE00BE0A0694E
:1040B0007021FFF76AFF064607E060680421FFF7FA
:1040C00064FF064601E0002600BF00E000263046FF
:1040D00070BDB1F5007F3AD00FDC202928D006DC76
:1040E00001291CD004291DD0082940D11DE04029F8
:1040F00021D0B1F5807F3AD126E0B1F5004F31D023
:1041000006DCB1F5806F25D0B1F5006F2FD124E02A
:10411000B1F5803F12D0B1F5003F28D111E0154A2A
:10412000826025E00822C26022E01022C2601FE007
:10413000082202611CE01022026119E0082242609C
:1041400016E01022426013E00422426010E00422D4
:1041500042600DE0042242600AE0002282610422F3
:10416000426005E0002282610422426000E000BF5C
:1041700000BF704701010100FE4A1070704730B166
:10418000FC49096841F48071FA4A116005E0F94977
:10419000096821F48071F74A1160704730B1F54920
:1041A000096841F40071F34A116005E0F1490968BA
:1041B00021F40071EF4A1160704730B1ED49096890
:1041C00041F48061EB4A116005E0EA49096821F495
:1041D0008061E84A11607047E648006840F400607A
:1041E000E44908607047E348006840F48050E149C2
:1041F00008607047DF481030006800F0004028B1C8
:10420000DD48DC49091D0860DC4808607047D94872
:104210001030006840F00040D64910310860704707
:104220000920D4490C31096801F48031B1F5803F8F
:1042300001D1012020E0CF490C31096801F01001C3
:1042400009B1062018E0CB490C31096801F48071EE
:1042500009B1022010E0C7490C31096801F0EF01F3
:1042600009B1072008E0C3490C31096801F00201D7
:1042700009B1082000E00920704708B50920009026
:10428000FFF7CEFF009002E0FFF7CAFF00909DF815
:1042900000000128F8D09DF8000008BD70B5044664
:1042A0000A460026092502B909E0012A01D11602B1
:1042B00005E0022A01D1160201E04FF44076FFF733
:1042C000DCFF0546092D2DD1AA481030006820F4E6
:1042D0004070A84910310860084600683043086003
:1042E0000846006820F0F80008600846006844F0BE
:1042F000020108439F49103108600846006840F4F5
:1043000080300860FFF7B9FF05469A481030006812
:1043100020F002009749103108600846006820F03C
:10432000F8000860284670BD30B502460025092413
:10433000FFF7A3FF044602B909E0012A01D11502E3
:1043400005E0022A01D1150201E04FF44075092C65
:1043500020D188481030006820F440708549103121
:10436000086008460068284308600846006840F076
:10437000040008600846006840F480300860FFF7D9
:104380007CFF04467B481030006820F00400794927
:1043900010310860204630BD30B5024600250924A2
:1043A000FFF76BFF044602B909E0012A01D11502AB
:1043B00005E0022A01D1150201E04FF44075092CF5
:1043C00020D16C481030006820F4407069491031E9
:1043D000086008460068284308600846006840F006
:1043E000040008600846006840F480300860FFF769
:1043F00044FF04465F481030006820F004005D4927
:1044000010310860204630BD30B502460025092431
:10441000FFF733FF044602B909E0012A01D1150272
:1044200005E0022A01D1150201E04FF44075092C84
:1044300020D150481030006820F440704D491031B0
:10444000086008460068284308600846006840F491
:10445000004008600846006840F480300860FFF7BC
:104460000CFF044643481030006820F400404149E6
:1044700010310860204630BD70B5064614461D4612
:104480000922FFF7FAFE0246092A1ED139481030E8
:10449000006820F440703749103108600846006811
:1044A00040F4407008600846006840F00100086071
:1044B00034607560FFF7E1FE02462E481030006858
:1044C00020F001002B4910310860104670BD30B556
:1044D00002460C460925FFF7D0FE0546092D1DD1E1
:1044E00024481030006820F44070224910310860E0
:1044F0000846006840F4007008600846006840F014
:10450000010008601460FFF7B8FE05461948103036
:10451000006820F00100174910310860284630BDBE
:1045200030B502460C460925FFF7A7FE0546092DC2
:104530001DD110481030006820F440700D49103132
:1045400008600846006840F480700860084600680B
:1045500040F0010008601480FFF78FFE0546054813
:104560001030006820F00100024910310860284630
:1045700030BD0000003C024023016745AB89EFCD10
:1045800030B502460C460925FFF777FE0546092D92
:1045900017D19B48006820F440709949086008468C
:1045A000006808600846006840F001000860147068
:1045B000FFF763FE05469248006820F0010090492D
:1045C0000860284630BD8E48001D006800F00100DC
:1045D00028B18C488A49083908608B4808607047C0
:1045E0008748001D006840F001008549091D0860EA
:1045F000704730B502460C460925FFF73EFE0546DA
:10460000092D10D13CB17E48801D008890437C4923
:10461000891D088007E07A48801D008891B2084310
:104620007749891D088030BD30B502460C46092502
:10463000FFF723FE0546092D10D13CB170480A3022
:10464000008890436E490A31088007E06C480A30C0
:10465000008891B208436A490A31088030BDFF21C1
:10466000674AD21D127802F07F0140EA0102644BD2
:10467000DB1D1A70704730B502460C460925FFF75E
:10468000FCFD0546092D10D144B15D48801D008810
:1046900091B208435A49891D088006E05848801D98
:1046A000008890435649891D088030BD30B50246C8
:1046B0000C460925FFF7E1FD0546092D10D144B14F
:1046C0004F480A30008891B208434D490A310880AA
:1046D00006E04B480A300088904349490A31088077
:1046E00030BD10B502460924FFF7C7FD0446092C6A
:1046F00002D14348401D027010BDF0B504460D467E
:10470000FF260927FFF7B9FD0746092F0BD13C48C3
:10471000001D007800F00F0645EA06001043204314
:104720003749091D0870F0BD3549091D097821F088
:104730001001334A121D117011460978014311709E
:1047400070472F49091D097821F00C012C4A121DD0
:1047500011701146097801431170704700B50922A4
:104760002748001D007840F002002549091D087007
:10477000FFF783FD0246104600BD2148001D00687A
:10478000C0F3471070471E48801D008870471C48C2
:104790000A30008870471A48801D00887047184802
:1047A0000A300088704700201549491D0978AA2958
:1047B00001D0012000E0002070471148001D007862
:1047C00000F00C00704729B10D4A126802430C4BEF
:1047D0001A6004E00A4A12688243094B1A60704763
:1047E00001460020064A121F12680A400AB1012041
:1047F00000E0002070470249091F08607047000070
:10480000103C02403B2A19087F6E5D4C10B50446EF
:10481000FE48844208D101210846FEF7E6FC00214B
:104820000120FEF7E2FC9DE0B4F1804F08D10121A8
:104830000846FEF7C9FC00210120FEF7C5FC91E007
:10484000F348844208D101210220FEF7BDFC00217B
:104850000220FEF7B9FC85E0EE48844208D1012130
:104860000420FEF7B1FC00210420FEF7ADFC79E046
:10487000E948844208D101210820FEF7A5FC002167
:104880000820FEF7A1FC6DE0E448844208D1012134
:104890001020FEF799FC00211020FEF795FC61E046
:1048A000DF48844208D101212020FEF78DFC002141
:1048B0002020FEF789FC55E0DA48844208D1012126
:1048C0000220FEF792FC00210220FEF78EFC49E058
:1048D000D548844209D101210804FEF786FC002155
:1048E0004FF48030FEF781FC3CE0D048844209D18F
:1048F00001214804FEF779FC00214FF40030FEF757
:1049000074FC2FE0CA48844209D101218804FEF7D3
:104910006CFC00214FF48020FEF767FC22E0C548C4
:10492000844208D101214020FEF74EFC00214020A6
:10493000FEF74AFC16E0C048844208D101218020DD
:10494000FEF742FC00218020FEF73EFC0AE0BB4857
:10495000844207D101218015FEF736FC0021A01505
:10496000FEF732FC10BD00220288A84B98420ED000
:10497000AC4B98420BD0B0F1804F08D0A44B98427A
:1049800005D0A44B984202D0A34B984204D14FF6D5
:104990008F731A404B881A43A04B984207D0A04B04
:1049A000984204D04FF6FF431A400B891A43028005
:1049B0004B68C3620B880385944B984202D0994B95
:1049C000984201D18B7A03860123838270474FF08E
:1049D000FF31416000210180018141808172704777
:1049E0000185828270470A46002101884FF68F7345
:1049F000194011430180704741627047C16270479E
:104A00000146486A70470146088D704721B1028807
:104A100042F00202028004E002884FF6FD731A4061
:104A20000280704721B1028842F00402028004E053
:104A300002884FF6FB731A400280704721B102884A
:104A400042F08002028004E002884FF67F731A4031
:104A50000280704702884FF6F7731A40028002887E
:104A60000A430280704702884FF6FF431A400280D3
:104A700002880A430280704721B1028842F0010295
:104A8000028004E002884FF6FE731A4002807047ED
:104A900070B5002400220023058C4FF6FE763540C9
:104AA0000584028C8388048B4FF68F752C40B51ECD
:104AB0002C400D882C43751E2A408D892A434D8831
:104AC0002A43524DA84202D0564DA84213D14FF668
:104AD000F7752A40CD892A434FF6FB752A408D8809
:104AE0002A434FF6FF652B404FF6FF552B400D8AAA
:104AF0002B434D8A2B43838004838D684563028456
:104B000070BD70B5002400220023058C4FF6EF76AF
:104B100035400584028C8388048B48F6FF752C4051
:104B20004FF6FF452C400D884FF6FF7606EA052527
:104B30002C434FF6DF752A408D8906EA05152A4376
:104B40004D8806EA05152A43304DA84202D0354D5E
:104B5000A8421DD14FF67F752A40CD894FF6FF76CA
:104B600006EA05152A434FF6BF752A408D8806EAE6
:104B700005152A434FF6FF352B404FF2FF752B40AA
:104B80000D8A06EA85052B434D8A06EA85052B43E7
:104B9000838004838D688563028470BD70B50024B2
:104BA00000220023058C4FF6FF6635400584028CF9
:104BB0008388848B4FF68F752C404FF6FC752C4004
:104BC0000D882C434FF6FF552A408D894FF6FF760E
:104BD00006EA05252A434D8806EA05252A430B4D9A
:104BE000A84202D00F4DA84238D14FF2FF752A409B
:104BF000CD894FF6FF7606EA05252A434FF6FF35A5
:104C00002A408D8806EA05252A4319E00000014064
:104C10000004004000080040000C0040001000406C
:104C200000140040000401400040014000440140E5
:104C30000048014000180040001C004000200040D7
:104C40004EF6FF752B404DF6FF752B400D8A06EA98
:104C500005152B434D8A06EA05152B438380848373
:104C60008D68C563028470BD70B5002200230024E6
:104C7000058C4EF6FF7635400584038C8488828B44
:104C800048F6FF752A404FF6FF452A400D884FF63B
:104C9000FF7606EA05252A434DF6FF752B408D89E0
:104CA00006EA05352B434D8806EA05352B43FE4DB4
:104CB000A84202D0FD4DA84208D14BF6FF752C400A
:104CC0000D8A4FF6FF7606EA85152C438480828391
:104CD0008D680564038470BD00210180418081805E
:104CE00081608181C18101824182704770B5034634
:104CF000002000241846183001258D40ACB21D8CD0
:104D0000A5431D8409B108290AD100EB610005689B
:104D10004FF68F76354005600568154305600FE056
:104D20000D1FC5F34E052844056848F6FF7635404B
:104D3000056005684FF6FF7606EA022635430560F2
:104D400070BD4163704781637047C1637047016400
:104D500070470A460021018B4FF68F7319401143AB
:104D6000018370470A460021018B48F6FF73194002
:104D70004FF6FF7303EA02231943018370470A4683
:104D80000021818B4FF68F73194011438183704747
:104D90000A460021818B48F6FF7319404FF6FF73D6
:104DA00003EA02231943818370470A460021018BDD
:104DB0004FF6F77319401143018370470A460021EB
:104DC000018B4FF2FF7319404FF6FF7303EA022382
:104DD0001943018370470A460021818B4FF6F77310
:104DE00019401143818370470A460021818B4FF29D
:104DF000FF7319404FF6FF7303EA022319438183BF
:104E000070470A460021018B4FF6FB73194011438E
:104E1000018370470A460021018B4FF6FF3319408A
:104E20004FF6FF7303EA02231943018370470A46D2
:104E30000021818B4FF6FB7319401143818370472A
:104E40000A460021818B4FF6FF3319404FF6FF735E
:104E500003EA02231943818370470A460021018B2C
:104E60004FF67F7319401143018370470A460021B2
:104E7000018BC1F30E014FF6FF7303EA02231943BE
:104E8000018370470A460021818B4FF67F731940DA
:104E90001143818370470A460021818BC1F30E01C3
:104EA0004FF6FF7303EA02231943818370470A46D2
:104EB0000021018C4FF6FD731940114301847047A6
:104EC0000A460021018C4FF6F77319401143018403
:104ED00070470A460021018C4FF6DF7319404FF6E8
:104EE000FF7303EA02131943018470470A46002145
:104EF000018C4FF67F7319404FF6FF7303EA0213DC
:104F00001943018470470A460021018C4FF6FF5374
:104F100019404FF6FF7303EA0223194301847047D7
:104F20000A460021018C4FF2FF7319404FF6FF73C0
:104F300003EA02231943018470470A460021018CC9
:104F40004DF6FF7319404FF6FF7303EA023319431E
:104F50000184704730B5002301248C40A3B2048C37
:104F60009C430484048C02FA01F5ADB22C43048402
:104F700030BD30B5002304248C40A3B2048C9C4384
:104F80000484048C02FA01F5ADB22C43048430BDD4
:104F9000828B4FF2FF331A408283828B4FF6FF736E
:104FA00003EA01231A4382837047F0B50C46154685
:104FB000002100220026078C4EF6FF7C07EA0C0732
:104FC0000784818B028C4FF6FF7707EA043640F6A0
:104FD000FF4739404FF6FF7707EA052739434FF679
:104FE000FF7707EA0337394345F6FF773A4046F43F
:104FF00080573A4381830284F0BD828B4FF6F3736E
:105000001A408283828B0A4382837047F0B50C4634
:105010001546002100220026078C4FF6FF6C07EA98
:105020000C070784818B028C4FF6FF7707EA042672
:105030004FF60C7739404FF6FF7707EA03172F43F7
:1050400039434FF2FF573A4046F480773A43818321
:105050000284F0BD028B4FF2FF331A400283028BB1
:105060004FF6FF7303EA01231A4302837047F0B53A
:105070000C461546002100220026078C4FF6EF7CD7
:1050800007EA0C070784018B028C4FF6FF7707EACB
:10509000041640F6FF4739404FF6FF7707EA03371B
:1050A00039434FF6FF7703E0000001400004014060
:1050B00007EA052739434FF65F773A4046F0100775
:1050C0003A4301830284F0BD028B4FF6F3731A401A
:1050D0000283028B0A4302837047F0B50C461546E3
:1050E00000210022068C4FF6FE773E400684018B9D
:1050F000028C4FF60C7631407E1C06EA03162E43D6
:1051000031434FF6F576324044F0010632430183D5
:105110000284F0BD70B505460C46208850B923893D
:10512000A28861882846FFF7D8FFE1882846FFF764
:10513000CBFF25E0208804280AD12389A288618832
:105140002846FFF794FFE1882846FFF783FF17E022
:10515000208808280AD12389A28861882846FFF779
:1051600055FFE1882846FFF748FF09E02389A28818
:1051700061882846FFF719FFE1882846FFF708FFF6
:1051800070BD002101804180012181800021C1800A
:10519000018170472DE9F04105460C4600260127A4
:1051A000608808B9022600E00026A088012801D105
:1051B000022700E001272088A0B92389A2886188FE
:1051C0002846FFF78AFFE1882846FFF77DFF2389FD
:1051D0003A4631462846FFF74AFFE1882846FFF75E
:1051E00039FF13E02389A28861882846FFF73FFF33
:1051F000E1882846FFF72EFF23893A4631462846A4
:10520000FFF76BFFE1882846FFF75EFFBDE8F081FE
:105210000146486B70470146886B70470146C86B72
:1052200070470146086C70470A884B881A438B8880
:105230001A43CB881A430B891A434B891A438B892B
:105240001A43A0F8442070470021018041808180EA
:10525000C180018141818181704731B1B0F8442022
:1052600042F40042A0F8442005E0B0F84420C2F324
:105270000E02A0F84420704721B1828842F0040257
:10528000828004E082884FF6FB731A408280704768
:1052900021B1828842F00102828004E082884FF6C8
:1052A000FE731A40828070471AB183890B43838151
:1052B00002E083898B438381704781827047024675
:1052C0000020138A0B400BB1012000E00020704742
:1052D000CA430282704730B50246002000230024F2
:1052E000158A05EA0103958905EA010413B10CB199
:1052F000012000E0002030BDCA430282704741EA2D
:105300000203A0F8483070471AB183890B438381A8
:1053100002E083898B438381704721B1828842F008
:105320000802828004E082884FF6F7731A40828078
:10533000704701894FF6F8721140018170470A46A3
:10534000002101894FF68F73194011430181704785
:1053500030B504460D4629462046FFF7F0FF208968
:1053600040F00700208130BD2DE9F04104460D4694
:1053700016461F46602D06D13B4601223146204687
:10538000FFF775FE05E03B46012231462046FFF758
:10539000A4FE29462046FFF7D2FF208940F00700EF
:1053A0002081BDE8F08130B50C4600210189C9B2E9
:1053B0004FF6FF7505EA032515432543294301816F
:1053C00030BD2DE9F04105460E46174698460024AB
:1053D00043463A4631462846FFF7E5FF2C894FF60B
:1053E000F870044044F007044FF68F70044044F016
:1053F00070042C81BDE8F081F0B504460D461646D8
:105400001F463B46324629462046FFF7CCFF2089FF
:1054100040F480402081F0BD82884FF68F731A409F
:10542000828082880A438280704702894FF6F8732F
:105430001A40028102890A430281704702894FF6AD
:105440007F731A40028102890A4302817047F0B5D6
:105450000C4615461E460021002200230189028BBE
:10546000038C4FF6F877394021434FF6FC473A401A
:1054700040F201173A434FF6DD773B404FF6FF7796
:1054800007EA06172F433B43018102830384F0BDE3
:1054900021B1828842F08002828004E082884FF647
:1054A0007F731A4082807047A0F850107047000048
:1054B00001B502E00098401E009000980028F9D144
:1054C00008BD0146002901DA484200E0084670475D
:1054D00000B50246002A07DD0120FE4908600020D1
:1054E000FD49C1F8800206E00020FA490860012069
:1054F000F949C1F880021046FFF7E3FFF749086059
:1055000000BD00B50246002A07DD0120F44908600D
:105510000020F449C1F8B80206E00020F049086014
:105520000120F049C1F8B8021046FFF7CAFFEE4962
:10553000086000BD4FF47A60EC490968424291422C
:1055400002DA4142E94A1160E8490968814201DD15
:10555000E6490860E649096811F5FA6F02DAE5499B
:10556000E34A1160E2490968B1F5FA6F03DD4FF4CF
:10557000FA61DF4A116070470A1A00EE902AF8EECD
:10558000E00ADD4AC2ED000AD2ED000ADB4AC2EDB4
:10559000000ADB4AD2ED000AD74A92ED001A70EEFB
:1055A000810AD74AC2ED000AD64AD2ED000AF1EECE
:1055B000600AD24A92ED001A70EE810AD24AC2ED18
:1055C000000ACE4AD2ED000ACE4AC2ED000ACC4A09
:1055D000D2ED000A9FEDCD1AF4EEC10AF1EE10FAF9
:1055E00003DDDFEDCB0AC2ED000AC54AD2ED000AA9
:1055F0009FEDC81AF4EEC10AF1EE10FA03D2DFED06
:10560000C40AC2ED000AC44AD2ED000ABA4A92EDB9
:10561000001A60EE810AC14A92ED001AB84AD2ED32
:10562000001A41EE210ABE4A92ED001AB64AD2EDA6
:10563000001AB0EE600A01EE210A4A1D904206DA15
:105640004A1F824203DADFEDB20AB0EE600A704709
:105650000A1A00EE902AF8EEE00AB24AC2ED000AF9
:10566000D2ED000AB04AC2ED000AB04AD2ED000AFB
:10567000AC4A92ED001A70EE810AAC4AC2ED000A03
:10568000AB4AD2ED000AF1EE600AA74A92ED001A89
:1056900070EE810AA74AC2ED000AA34AD2ED000AC1
:1056A000A34AC2ED000AA14AD2ED000A9FED971A63
:1056B000F4EEC10AF1EE10FA03DDDFED950AC2ED5A
:1056C000000A9A4AD2ED000A9FED921AF4EEC10A3E
:1056D000F1EE10FA03D2DFED8E0AC2ED000A964A0F
:1056E000D2ED000A8F4A92ED001A60EE810A934AC9
:1056F00092ED001A8D4AD2ED001A41EE210A904A2D
:1057000092ED001A8B4AD2ED001AB0EE600A01EE5B
:10571000210A4A1D904206DA4A1F824203DADFED6F
:105720007C0AB0EE600A704770B5002500240121A4
:105730008448FFF7D0FD002865D083480078A8B1E1
:105740008248006882490860824801688048006891
:10575000FFF77EFFBDEEC00A10EE104A63480460FA
:10576000FFF7E8FE61480068FFF7CBFE7A48007853
:10577000D8B17A4800687A49086074480068774967
:1057800008600968764A1268881A76490968FFF73E
:105790005FFFBDEEC00A10EE104A54480460FFF7E8
:1057A000C9FE52480068FFF7ACFE6F480078B8B1F8
:1057B0004FF08040406A6D4908606D4801686B4851
:1057C0000068FFF7D9FEBDEEC00A10EE105A484837
:1057D0000560FFF7AFFE464800684042FFF778FEDD
:1057E0005948007858B95C48007840B95E4800785C
:1057F00028B90020FFF785FE0020FFF769FE012190
:105800005048FFF779FD70BD70B52DED068B04464D
:105810000D469FED3F0AF0EE408A00EE104AB8EECA
:10582000C00A5448D0ED000A30EE600AF0EE408A1B
:1058300000EE104AB8EEC00A80ED000A00EE105AE1
:10584000B8EEC00A30EE680A10EE101A084603F0EF
:10585000B3F941EC1A0B9FED480B53EC102B03F0FE
:10586000ADF841EC190B03F035F8454908600846DE
:1058700090ED000A434880ED000A434890ED000A8D
:105880000846D0ED000A30EE200A3F4880ED000ABD
:105890003E4890ED000AB1EE400A3A48D0ED000AC9
:1058A00030EE200A3A4880ED000A364890ED000AB2
:1058B000364880ED000A344890ED000ADFED350AE5
:1058C000B4EEE00AF1EE10FA03DD9FED110A80ED6F
:1058D000000A61E09C0240420080404240040040D7
:1058E000BC8241420080414238080040D400002080
:1058F000D800002030F8FFFF0C0100200801002034
:105900001001002004010020140100200000C34405
:10591000000000000000C3C4180100201C0100208A
:1059200020010020EC000020E8000020F000002012
:10593000E4000020F4000020F8000020FC0000201B
:10594000000100200010004028000020240C00402E
:10595000900000201800002026000020DC0000201D
:10596000E0000020200000202900002094000020FA
:105970001C00002024010020000000000000F03F77
:105980003001002028010020340100202C010020DB
:105990003801002000007A44644890ED000A5FED71
:1059A000030AB4EEE00AF1EE10FA03D21FED280A62
:1059B00080ED000A5E4890ED000A5E48D0ED000AD6
:1059C00020EE200A5C48D0ED000A584890ED001AFD
:1059D00000EE810A5948D0ED000A594890ED001AAE
:1059E00000EE810A5748D0ED000A30EE208A80EDA3
:1059F000008AB0EE480ABDEC068B70BD70B52DED87
:105A0000068B04460D461FED3E0AF0EE408A00EE7E
:105A1000104AB8EEC00A4C48D0ED000A30EE600AD9
:105A2000F0EE408A00EE104AB8EEC00A80ED000A9F
:105A300000EE105AB8EEC00A30EE680A10EE101AE6
:105A4000084603F0B9F841EC1A0B9FED400B53ECFC
:105A5000102B02F0B3FF41EC190B02F03BFF3D4964
:105A60000860084690ED000A3B4880ED000A3B487C
:105A700090ED000A0846D0ED000A30EE200A3748C3
:105A800080ED000A364890ED000AB1EE400A324837
:105A9000D0ED000A30EE200A324880ED000A2E4890
:105AA00090ED000A2E4880ED000A2C4890ED000A87
:105AB000DFED2D0AB4EEE00AF1EE10FA03DD1FED82
:105AC0006C0A80ED000A254890ED000ADFED260AF9
:105AD000B4EEE00AF1EE10FA03D21FED730A80ED86
